:060000000A128A110C280F
:10000800FE00030EF0000A08F1000A168A11072EF6
:100018000A128A110F288313CC30FD000830FE0025
:100028000430FF00B73084000A168A112B260A1202
:100038008A110A128A11FE270A128A11EE00A030CC
:100048008400B7300A168A11AF250A128A11FA01FC
:10005800FB0183010A128A1131280A168A11CD265A
:100068000A128A1183160313D401D501D201D301D0
:100078000A168A11EC250A128A11F601F60A0130CD
:100088000A168A11B4270A128A110130F700803043
:10009800F8000A168A116E270A128A1183160313AA
:1000A800570883120313DF008316031356088312BD
:1000B8000313DE00B530E000B330E100B130E200F8
:1000C8000A128A15CF200A128A11831603135108BF
:1000D80083120313DF0083160313500883120313DC
:1000E800DE000030E000E100FF30E2000030E30015
:1000F8000030E400E500C830E6000030E7000A12EE
:100108008A110C270A128A11831203135F088316B7
:100118000313D900831203135E0883160313D80050
:10012800590883120313DF00831603135808831238
:100138000313DE00AF30E000AD30E100AB30E20089
:100148000A128A15CF200A128A118316031323086C
:1001580083120313D7008316031322088312031391
:10016800D60083160313210883120313D5008316C0
:100178000313200883120313D4000A128A15FF21DF
:100188000A128A11831203135508DF005408DE008F
:10019800A930E000A730E100A530E2000A128A1574
:1001A800CF200A128A11F601F60A02300A168A11BD
:1001B800B4270A128A11831603133508303E0A162B
:1001C8008A1101270A128A110230F60002300A1633
:1001D8008A11B4270A128A11831603133308303E92
:1001E8000A168A1101270A128A110330F600023012
:1001F8000A168A11B4270A128A11831603133108C2
:10020800303E0A168A1101270A128A110730F600B1
:1002180002300A168A11B4270A128A1183160313A8
:100228002F08303E0A168A1101270A128A1108304F
:10023800F60002300A168A11B4270A128A118316A8
:1002480003132D08303E0A168A1101270A128A1153
:100258000930F60002300A168A11B4270A128A11E8
:10026800831603132B08303E0A168A1101270A1237
:100278008A110230831603132402031C44294529DA
:100288005D290530240203184A294B295D290C30C1
:10029800F60002300A168A11B4270A128A11BB30F6
:1002A800F7000030F8000A168A116E270A128A1120
:1002B800B72905302402031C622963297B290930E8
:1002C80024020318682969297B290C30F6000230BA
:1002D8000A168A11B4270A128A11C830F7000030AA
:1002E800F8000A168A116E270A128A11B7290930EE
:1002F8002402031C8029812999290C30240203181F
:100308008629872999290C30F60002300A168A11A5
:10031800B4270A128A11C430F7000030F8000A1610
:100328008A116E270A128A11B7290C302402031C7D
:100338009E299F29B729133024020318A429A52927
:10034800B7290C30F60002300A168A11B4270A12AF
:100358008A11C030F7000030F8000A168A116E279B
:100368000A128A11B729033083160313CE00083006
:10037800CD007630CC00CC0BBF29CD0BBF29CE0BDE
:10038800BF2900000A168A11B7250A128A115030AF
:10039800F2000030F3000A168A11C9250A128A11E0
:1003A800831603132408CC00CD014C08F2004D0835
:1003B800F3000A168A11C9250A128A110A168A1127
:1003C800C0250A128A11033083160313CE000830A1
:1003D800CD007630CC00CC0BEF29CD0BEF29CE0B1E
:1003E800EF2900000A168A11B7250A128A1151301E
:1003F800F2000030F3000A168A11C9250A128A1180
:100408000030F200F3000A168A119F260A128A1198
:10041800730883160313D1007208D0000A168A11D4
:10042800C0250A128A11033083160313CE00083040
:10043800CD007630CC00CC0B1F2ACD0B1F2ACE0B5B
:100448001F2A00000A168A11B7250A128A1140309D
:10045800F2000030F3000A168A11C9250A128A111F
:1004680083120313060883160313CC00CD014C082E
:10047800F2004D08F3000A168A11C9250A128A11DA
:100488000A168A11C0250A128A110330831603132B
:10049800CE000830CD007630CC00CC0B512ACD0BE5
:1004A800512ACE0B512A00000A168A11B7250A12C2
:1004B8008A114130F2000030F3000A168A11C9256A
:1004C8000A128A110030F200F3000A168A119F26D8
:1004D8000A128A11730883160313D7007208D6000C
:1004E8000A168A11C0250A128A11033083160313CB
:1004F800CE000830CD007630CC00CC0B812ACD0B55
:10050800812ACE0B812A00000A168A11B7250A1201
:100518008A113130F2000030F3000A168A11C92519
:100528000A128A110030F200F3000A168A119F2677
:100538000A128A11720883160313A4000A168A1174
:10054800C0250A128A11033083160313CE0008301F
:10055800CD007630CC00CC0BAF2ACD0BAF2ACE0B1A
:10056800AF2A0000831603132408CC00CD01CE0166
:10057800CF014F08F5004E08F4004D08F3004C0871
:10058800F20001300A128A151B230A128A11750813
:1005980083120313D7007408D6007308D5007208B5
:1005A800D4004130DB008830DA000030D900003058
:1005B800D8000A128A11DA270A128A118312031341
:1005C800570883160313A3008312031356088316D0
:1005D8000313A20083120313550883160313A10003
:1005E80083120313540883160313A0002308F5008D
:1005F8002208F4002108F3002008F2000030F90076
:100608000030F8000030F7000030F6000A128A15B2
:1006180077220A128A110318122B132B1D2B003074
:1006280083160313A3000030A2000030A10000309D
:10063800A000013083160313D2070318D30A003031
:10064800D3075308803AFF0080307F02031D2E2B0A
:1006580004305202031C312B322BB92B831603139F
:10066800D201D301A92B5608303E0A168A11D32588
:100678000A128A11013083160313D4000030D50002
:100688000130831203138600B92B5808303E0A162E
:100698008A11D3250A128A11023083160313D40053
:1006A8000030D5000230831203138600B92B2308CB
:1006B80083120313C700831603132208831203133C
:1006C800C60083160313210883120313C50083167B
:1006D8000313200883120313C4004230C3004030C0
:1006E800C2000030C1000030C0000A128A15A825D7
:1006F8000A128A11831203134308D7004208D6004E
:100708004108D5004008D4000A128A15FF210A12B0
:100718008A118312031354080A168A11D3250A1260
:100728008A1183160313D401D501043083120313ED
:100738008600B92B64300A168A11D3250A128A1149
:100748000330831203138600B92B5508003A0319A6
:10075800AE2B9E2B5408003A0319372B013A031984
:10076800492B033A03195B2B9E2B82308316031304
:10077800CD00DD30CC00CC0BBF2BCD0BBF2B3C28E4
:100788000A128A110C288312031329088039B3002E
:100798002908AE002E07B900A81FD32BD42BD52BC0
:1007A800391439080319D92BDA2BE92B390A031D17
:1007B800DE2BDF2BE72B0030A9000030A80000302B
:1007C800A7000030A600A817F12B0030A9000030C0
:1007D800A8000030A7000030A6002D088039AE0020
:1007E8002E08B3062D08AE002E07B400AC1FFD2B53
:1007F800FE2BFF2B341434080319032C042C132C60
:10080800340A031D082C092C112C0030AD000030CF
:10081800AC000030AB000030AA00AC171B2C003035
:10082800AD000030AC000030AB000030AA00340846
:1008380003191F2C202C252C3908031D242C252CAA
:100848002E2C0030A9000030A8000030A70000308E
:10085800A6000B2F2608F2002C080A168A11762605
:100868000A128A11730883120313BF007208BE00AC
:100878003E08AE00AF01B001B1013108B800300840
:10088800B7002F08B6002E08B5003F08AE00AF012C
:10089800B001B1013108BD003008BC002F08BB0011
:1008A8002E08BA002708F2002B080A168A117626A5
:1008B8000A128A11730883120313BF007208BE005C
:1008C8003E08AE00AF01B001B1012E08B5072F08F0
:1008D80003110318013E0319722CB60730080311DF
:1008E8000318013E0319792CB707310803110318BF
:1008F800013E0319802CB8073F08AE00AF01B001D4
:10090800B1012E08BA072F0803110318013E031975
:100918008E2CBB07300803110318013E0319952CD0
:10092800BC07310803110318013E03199C2CBD07AD
:100938002808F2002A080A168A1176260A128A114D
:10094800730883120313BF007208BE003E08AE008E
:10095800AF01B001B1012E08B5072F080311031824
:10096800013E0319B82CB607300803110318013EDD
:100978000319BF2CB707310803110318013E0319E7
:10098800C62CB8073F08AE00AF01B001B1012E0870
:10099800BA072F0803110318013E0319D42CBB070B
:1009A800300803110318013E0319DB2CBC0731087A
:1009B80003110318013E0319E22CBD070830AE00ED
:1009C8000310B50DB60DB70DB80DAE0BE42C270806
:1009D800F2002A080A168A1176260A128A11730862
:1009E80083120313BF007208BE003E08AE003F0822
:1009F800AF00B001B1012E08B5072F080311031885
:100A0800013E0319082DB607300803110318013EEB
:100A180003190F2DB707310803110318013E0319F5
:100A2800162DB8072608F2002B080A168A11762612
:100A38000A128A11730883120313BF007208BE00DA
:100A48003E08AE003F08AF00B001B1012E08B5075F
:100A58002F0803110318013E0319332DB607300878
:100A680003110318013E03193A2DB7073108031182
:100A78000318013E0319412DB8070830AE000310D2
:100A8800B50DB60DB70DB80DAE0B432D2608F20007
:100A98002A080A168A1176260A128A1173088312FE
:100AA8000313BF007208BE003E08AE003F08AF0047
:100AB800B001B1012E08B5072F0803110318013E34
:100AC8000319672DB607300803110318013E0319EF
:100AD8006E2DB707310803110318013E0319752D50
:100AE800B8072708F2002C080A168A1176260A1277
:100AF8008A11730883120313BF007208BE003E08F0
:100B0800AE003F08AF00B001B1012E08BA072F08A8
:100B180003110318013E0319922DBB073008031176
:100B28000318013E0319992DBC0731080311031856
:100B3800013E0319A02DBD072808F2002B080A164C
:100B48008A1176260A128A11730883120313BF00CA
:100B58007208BE003E08AE003F08AF00B001B10108
:100B68002E08BA072F0803110318013E0319BD2DDB
:100B7800BB07300803110318013E0319C42DBC0735
:100B8800310803110318013E0319CB2DBD072808AE
:100B9800F2002C080A168A1176260A128A1173089E
:100BA80083120313BF007208BE003E08AE003F0860
:100BB800AF00B001B10108300310AE0DAF0DB00D9C
:100BC800B10DFF3E031DE02D2E08BA072F080311B3
:100BD8000318013E0319F12DBB0730080311031850
:100BE800013E0319F82DBC07310803110318013E13
:100BF8000319FF2DBD073508AE003608AF003708CA
:100C0800B0003808B10018300310B10CB00CAF0CAC
:100C1800AE0CFF3E031D082E2E08BA072F0803113D
:100C28000318013E0319192EBB07300803110318D6
:100C3800013E0319202EBC07310803110318013E99
:100C48000319272EBD070830AE000310B50DB60DE9
:100C5800B70DB80DAE0B292E39083407AE00AF0119
:100C6800AF0D2E08823EBE002F080318013EFF3E3E
:100C7800BF005B2E0130AE000310BA0DBB0DBC0DDA
:100C8800BD0DAE0B402EB81F4A2E4B2E4C2E3A14DB
:100C98000130AE000310B50DB60DB70DB80DAE0B93
:100CA8004E2EFF30BE070318BF0AFF30BF07BC1F18
:100CB8005E2E5F2E3E2EB401B81F632E642E802E4A
:100CC800FF303505AE00FF303605AF00FF30370581
:100CD800B0007F303805B100310830042F042E04ED
:100CE8000319772E782E7B2EB401B40A802E3A1C75
:100CF8007E2E7F2E802E782E34080319842E852E82
:100D0800B62E0130BA07003003180130BB07003097
:100D180003180130BC07003003180130BD073D1C23
:100D2800962E972EB62E3A08AE003B08AF003C0828
:100D3800B0003D08B1000130B200310DB10CB00C6B
:100D4800AF0CAE0CB20BA12E3108BD003008BC00B0
:100D58002F08BB002E08BA000130BE070318BF0ACF
:100D68000030BF073F08803AFF0080307F02031D34
:100D7800BF2EFF303E02031CC22EC32ECE2E7F3064
:100D880083120313BD008030BC000030BB0000306C
:100D9800BA00FF2E831203133F08803AFF00803009
:100DA8007F02031DD92E01303E020318DC2EDD2EF2
:100DB800E92E003083120313BD000030BC00003060
:100DC800BB000030BA00B301FF2E831203133E08A4
:100DD800B900FF30BA05FF30BB057F30BC050030D5
:100DE800BD05391CF82EF92EFA2EBC173908AE00AD
:100DF80003102E0CBD003308AE002E08BD043D08BC
:100E0800A9003C08A8003B08A7003A08A60008006B
:100E18008312031360086202F2006108031C610A6E
:100E28006302F300F401F31BF4037408F5000130C6
:100E38000A128A151B230A128A11750883120313D2
:100E4800C3007408C2007308C1007208C0003F30B4
:100E5800A9008030A8000030A7000030A600640870
:100E68006602F2006508031C650A6702F300F401D4
:100E7800F31BF4037408F50001300A128A151B23CA
:100E88000A128A11750883120313AD007408AC00A6
:100E98007308AB007208AA000A128A11C7230A1243
:100EA8008A11831203132908C7002808C6002708D7
:100EB800C5002608C4000A128A15D5230A128A1109
:100EC800831203134308EB004208EA004108E900D3
:100ED8004008E8006408F2006508F3000030F31BDE
:100EE800FF30F400F50001300A128A151B230A129C
:100EF8008A11750883120313C7007408C6007308A3
:100F0800C5007208C40060085E02F2006108031C94
:100F1800610A5F02F300F401F31BF4037408F5009F
:100F280001300A128A151B230A128A1175088312C6
:100F38000313AD007408AC007308AB007208AA0074
:100F48006B08A9006A08A8006908A7006808A60035
:100F58000A128A11C7230A128A1183120313290855
:100F6800C3002808C2002708C1002608C0000A12CA
:100F78008A15A8250A128A11831203134308D70079
:100F88004208D6004108D5004008D4000A128A1544
:100F9800FF210A128A11831203135508ED00540821
:100FA800EC006D08DF006C08DE000800803083125A
:100FB8000313D7065B08C3005A08C2005908C100CA
:100FC8005808C0005708C7005608C6005508C5008D
:100FD8005408C4000A128A15A8250A128A11831215
:100FE80003134308D7004208D6004108D50040083B
:060FF800D40008003334B0
:101008000034003488344134FF34FF34FF34FF3473
:101018000034FF34003400340034FF34FF3400342B
:101028000034FF34FF34FF340034F801F51F1D2865
:101038001E282528F409F509F40A0319F50AF80108
:10104800F80AF31F282829282E28F209F309F20A9A
:101058000319F30A72087304031933283428632820
:10106800F701F70A422801300310F20DF30DFF3E95
:10107800031D38280130F6007608F707F31F4528C6
:101088004628372873087502031D4C287208740215
:10109800031C4F28502856287208F4027308031CB2
:1010A800F503F50201300310F30CF20CFF3E031DAB
:1010B80057280130F702031D62286328462878085C
:1010C8000319672868286D28F409F509F40A031933
:1010D800F50A7508F3007408F200080000300A16D3
:1010E8008A1154260A128A153430F700F130F600B6
:1010F800F60B7C28F70B7C28812803300A168A1106
:101108003A260A128A150D30F700FB30F600F60B66
:101118008B28F70B8B28902803300A168A113A2659
:101128000A128A151D30F7009130F600F60B9A283E
:10113800F70B9A2803300A168A113A260A128A15DA
:1011480002300A168A113A260A128A1502300A163D
:101158008A113A260A128A1508300A168A113A267E
:101168000A128A1500300A168A113A260A128A15B6
:101178000C300A168A113A260A128A1500300A1605
:101188008A113A260A128A1506300A168A113A2650
:101198000A128A1508006430F2000030F300831246
:1011A80003135F08F5005E08F4000A128A159621F9
:1011B8000A128A15831203136008840072088313C5
:1011C8008000840A730880006430F2000030F30065
:1011D8005F08F5005E08F4000A128A1519200A1241
:1011E8008A15730883120313E4007208E3000A30B7
:1011F800F2000030F3006408F5006308F4000A12F6
:101208008A1596210A128A1583120313610884002D
:10121800720883138000840A730880000A30F20081
:101228000030F3005F08F5005E08F4000A128A1522
:1012380019200A128A15730883120313E60072082C
:10124800E50062088400650883138000840A660844
:1012580080000800003083120313A4000030A300AC
:101268000030A2000030A1007508740473047204F1
:1012780003193F2940298D29A501A50A50290130C4
:10128800A0000310F20DF30DF40DF50DA00B452988
:101298000130A0002008A507F51F53295429432928
:1012A8000130A0000310A10DA20DA30DA40DA00BE9
:1012B800562975087902031D6B2974087802031DE5
:1012C8006B2973087702031D6B2972087602031CC9
:1012D8006E296F297E297208F6027308031C730FA2
:1012E800F7027408031C740FF8027508031C750FC5
:1012F800F902211401300310F50CF40CF30CF20C74
:10130800FF3E031D7F290130A502031D8C298D296D
:1013180054292408F5002308F4002208F3002108C2
:10132800F200080083120313A101F31F9C299D29D1
:10133800A429F209F309F20A0319F30AA101A10A7F
:10134800F51FA729A829B129F409F509F40A0319F1
:10135800F50A0130F6007608A106A201A301720879
:1013680073040319B829B929F029A001A00AC729CB
:1013780001300310F20DF30DFF3E031DBD290130AE
:10138800F6007608A007F31FCA29CB29BC2901302B
:101398000310A20DA30DFF3E031DCC29730875028F
:1013A800031DD82972087402031CDB29DC29E329F0
:1013B8007208F4027308031CF503F50222140130C5
:1013C8000310F30CF20CFF3E031DE4290130A002C8
:1013D800031DEF29F029CB2921080319F429F52940
:1013E800FA29A209A309A20A0319A30A2308F300E8
:1013F8002208F2000800031083120313560D570D3C
:10140800DD005D08031D092A0A2A132A0030D700C7
:101418000030D6000030D5000030D400762A5408B9
:10142800D8005508D9005608DA005708DB001F30E5
:101438000310DB0CDA0CD90CD80CFF3E031D1C2A58
:101448005808DC00D617FF30D405FF30D505FF302B
:10145800D6050030D7059630DD02DD1F342A352A3F
:101468004F2A5D08803A973E03183B2A3C2A3D2ABA
:101478000A2A01300310D70CD60CD50CD40CFF3E29
:10148800031D3E2A0130D8005808DD07031D4D2AE8
:101498004E2A3D2A662A20305D02031C542A552A0A
:1014A800612A0A2A0130D8000310D40DD50DD60DB3
:1014B800D70DD80B582A0130DD025D08031D652AB7
:1014C800662A562A5C0803196A2A6B2A762AD409DE
:1014D800D509D609D709D40A0319D50A0319D60A92
:1014E8000319D70A08000030720583120313A000FD
:1014F80000307305A10080307405A2007F307505A7
:10150800A3002308220421042004031D8C2A8D2A09
:10151800952A0030F5000030F4000030F300003068
:10152800F20000307605A00000307705A100803079
:101538007805A2007F307905A3002308220421043E
:101548002004031DA82AA92AB12A0030F900003076
:10155800F8000030F7000030F600F51FB42AB52A6D
:10156800D92A0030A0000030A1000030A20080304D
:10157800A3007208A0027308031C730FC42AC52AAB
:10158800A1027408031C740FCA2ACB2AA202750888
:10159800031C750FD02AD12AA3022308F5002208BC
:1015A800F4002108F3002008F200F91FDC2ADD2AE4
:1015B800012B0030A0000030A1000030A2008030D4
:1015C800A3007608A0027708031C770FEC2AED2AFF
:1015D800A1027808031C780FF22AF32AA2027908DC
:1015E800031C790FF82AF92AA3022308F900220814
:1015F800F8002108F7002008F6008030F506803052
:10160800F90679087502031D132B78087402031D67
:10161800132B77087302031D132B76087202031825
:10162800162B172B192B03101A2B031408008312DF
:101638000313A00020080319222B232B372BF51F97
:10164800262B272B372B7209A2007309A3007409D4
:10165800A4007509A500A20A0319A30A0319A40A7C
:101668000319A50A3F2B7508A5007408A400730880
:10167800A3007208A2007508740473047204031DA1
:10168800462B472B502B0030F5000030F40000307B
:10169800F3000030F200D42B9630A100602B01300B
:1016A800F6007608A10701300310A50CA40CA30CC2
:1016B800A20CFF3E031D582BFE302505031D652B8C
:1016C800662B532B822B0130F6007608A1070130D8
:1016D800A207003003180130A307003003180130B7
:1016E800A407003003180130A50701300310A50C2A
:1016F800A40CA30CA20CFF3E031D7A2BFF3025057A
:10170800031D872B882B672B942B0130A1020130F6
:10171800F6000310A20DA30DA40DA50DF60B8D2B3D
:10172800A41B972B982B9E2B0230210203189D2B6C
:101738009E2B892B2118A12BA22BAA2BFF30A205A7
:10174800FF30A3057F30A405FF30A5050310A10CC9
:101758002108F600F701F801F90118300310F60D19
:10176800F70DF80DF90DFF3E031DB22B7608A20404
:101778007708A3047808A4047908A50420080319A5
:10178800C62BC72BCC2BF51FCA2BCB2BCC2BA517C5
:101798002508F5002408F4002308F3002208F200C5
:1017A80008008312031347088039D1004708C8008E
:1017B8004807D800C61FE12BE22BE32B5814580822
:1017C8000319E72BE82BF82B580A031DEC2BED2BFC
:1017D800F52B0030C7000030C6000030C5000030CF
:1017E800C400C617C701002C0030C7000030C6006F
:1017F8000030C5000030C40043088039C8004808DC
:10180800D1064308C8004807D900C21F0C2C0D2C6C
:101818000E2C591459080319122C132C232C590A6D
:10182800031D172C182C202C0030C3000030C200D8
:101838000030C1000030C000C217C3012B2C00309B
:10184800C3000030C2000030C1000030C0004308AF
:10185800420441044004031D322C332C4C2C00302C
:10186800C7000030C6000030C5000030C40080301A
:10187800C6047F30C7045108C8004808C704470891
:10188800C3004608C2004508C1004408C000A72D8F
:101898005808031D502C512C5A2C0030C30000301E
:1018A800C2000030C1000030C000A72D5808C80091
:1018B800C9014908CB0059084802CA00031CCB03D8
:1018C8004A087F3ED2004B080318013E003ED30071
:1018D8004708D0004608CF004508CE004408CD0090
:1018E8000030C7000030C6000030C5000030C4001A
:1018F8000030D7000030D6000030D5000030D400CA
:10190800D901D02C590803198A2C8B2CAB2C013007
:10191800C8000310CD0DCE0DCF0DD00DC80B8D2CEA
:101928000130C8000310C40DC50DC60DC70DC80B86
:10193800962CD71FA02CA12CA22C44140130C8002F
:101948000310D40DD50DD60DD70DC80BA42C430804
:101958005002031DB92C42084F02031DB92C41083F
:101968004E02031DB92C40084D02031CBC2CBD2C93
:10197800CC2C57174008CD024108031C410FCE025A
:101988004208031C420FCF024308031C430FD00236
:101998000130C8004808D9071A305902031CD52C51
:1019A800D62C862C50084F044E044D040319DD2C08
:1019B800DE2CFD2C5414FD2C0130C8000310C40D7E
:1019C800C50DC60DC70DC80BE22CD71FEC2CED2C8E
:1019D800EE2C44140130C8000310D40DD50DD60DDB
:1019E800D70DC80BF02CFF30D2070318D30AFF30ED
:1019F800D307C61F002D012DE02CD901D71F052DB7
:101A0800062D222DFF305405C800FF305505C900AA
:101A1800FF305605CA007F305705CB004B084A04F3
:101A2800490448040319192D1A2D1D2DD901D90A65
:101A3800222D441C202D212D222D1A2D5908031941
:101A4800262D272D582D0130C407003003180130EA
:101A5800C507003003180130C607003003180130ED
:101A6800C707471C382D392D582D4408C80045088C
:101A7800C9004608CA004708CB000130CC004B0D0E
:101A8800CB0CCA0CC90CC80CCC0B432D4B08C70097
:101A98004A08C6004908C5004808C4000130D207F2
:101AA8000318D30A0030D3075308803AFF00803068
:101AB8007F02031D612DFF305202031C642D652D2A
:101AC800732DFF3083120313D2000030D30000308F
:101AD800C7000030C6000030C5000030C4008312C3
:101AE80003135308803AFF0080307F02031D7E2DC8
:101AF800013052020318812D822D8F2D831203137A
:101B0800D201D3010030C7000030C6000030C50044
:101B18000030C400D101831203135208D800581CA6
:101B2800962D972D992DC6179D2D7F30C8004808F2
:101B3800C6055808C8000310480CC7005108C8005B
:101B48004808C704432C080083120313430880394C
:101B5800D0004308C8004807D200C21FB42DB52DD5
:101B6800B62D521452080319BA2DBB2DCB2D520A8B
:101B7800031DBF2DC02DC82D0030C3000030C2008A
:101B88000030C1000030C000C217C301D32D00309F
:101B9800C3000030C2000030C1000030C000470858
:101BA8008039D100510850060319DB2DDC2DDD2DBD
:101BB80050174708C8004807D100C61FE42DE52D77
:101BC800E62D511451080319EA2DEB2DFB2D510A6E
:101BD800031DEF2DF02DF82D0030C7000030C60092
:101BE8000030C5000030C400C617C701032E0030FE
:101BF800C7000030C6000030C5000030C4005208DD
:101C080051020318082E092E2F2E501F0C2E0D2EB0
:101C1800112E8030C8004808D0065208D300510859
:101C2800D2005308D1004008D3004408C00053082C
:101C3800C4004108D3004508C1005308C500420844
:101C4800D3004608C2005308C6004308D30047081B
:101C5800C3005308C700D3015108C800C901490887
:101C6800CB0052084802CA00031CCB034B08803A39
:101C7800FF0080307F02031D432E1A304A02031CE6
:101C8800462E472E7E2E8312031343084204410436
:101C98004004031D502E522E0130532E0030D30025
:101CA8000030C3000030C2000030C1000030C00066
:101CB8005108D200862E531C622E632E6A2E5308BA
:101CC800C8000310480C0138D3006C2E0310D30C45
:101CD800401C6F2E702E712ED3170130C800430D93
:101CE800C30CC20CC10CC00CC80B732E0130C80049
:101CF8004808D2078312031351085202031C852E89
:101D0800862E5F2E501B892E8A2ED32E5208031D35
:101D18008E2E8F2E982E0030C3000030C200003067
:101D2800C1000030C000FF2F4408C0074508031158
:101D38000318013E0319A12EC10746080311031811
:101D4800013E0319A82EC207470803110318013ED4
:101D58000319AF2EC307431CB22EB32E872F531C73
:101D6800B62EB72EBE2E5308C8000310480C0138F3
:101D7800D300C02E0310D30C401CC32EC42EC52E76
:101D8800D3170130C800430DC30CC20CC10CC00CE2
:101D9800C80BC72E0130C8004808D207872F430850
:101DA800803AFF004708803A7F02031DE52E460867
:101DB8004202031DE52E45084102031DE52E440895
:101DC80040020318E82EE92E412FFF30C800FF30EB
:101DD800C900FF30CA00FF30CB004408CC004508DA
:101DE800CD004608CE004708CF004008CC02410885
:101DF800031C410F002F012FCD024208031C420F84
:101E0800062F072FCE024308031C430F0C2F0D2F5C
:101E1800CF024C08C8074D0803184D0F142F152F73
:101E2800C9074E0803184E0F1A2F1B2FCA074F0851
:101E380003184F0ACB074B08C3004A08C2004908D9
:101E4800C1004808C0008030C8004808D006D3093F
:101E5800D30A5308031D312F322F4F2F0130C007EB
:101E6800003003180130C107003003180130C207E1
:101E7800003003180130C3074F2F4408C00245083B
:101E8800031C450FC1024608031C460FC20247083F
:101E9800031C470FC3024308420441044004031DC6
:101EA800562F572F832F5308031D5B2F5C2F832F2B
:101EB8000030C3000030C2000030C1000030C00054
:101EC800FF2F0130C8000310C00DC10DC20DC30D96
:101ED800C80B672FD31F712F722F732F4014531CF9
:101EE800762F772F7A2F0314D30D7C2F0310D30D61
:101EF80052080319802F812F832F0130D202C21F6D
:101F0800862F872F652FD101D31F8B2F8C2F9A2FC8
:101F180053087F390319912F922F952FD101D10A98
:101F28009A2F401C982F992F9A2F922F51080319F6
:101F38009E2F9F2FD32F0130C00700300318013088
:101F4800C107003003180130C20700300318013000
:101F5800C307431CB02FB12FD32F4008C800410836
:101F6800C9004208CA004308CB000130CC004B0D21
:101F7800CB0CCA0CC90CC80CCC0BBB2F4B08C3002C
:101F88004A08C2004908C1004808C000520A03199B
:101F9800CE2FCF2FD32F0130C8004808D207520ABE
:101FA8000319D72FD82FDD2F5208031DDC2FDD2F63
:101FB800EB2F0030C3000030C2000030C1000030F9
:101FC800C0005208031DE92FEA2FEB2FD001521C45
:101FD800EE2FEF2FF12FC217F52F7F30C8004808DA
:101FE800C2055208C8000310480CC300D01FFD2FBB
:101FF800FE2FFF2FC3170800FF1B0A2883137F1823
:1020080083170008840A0319FF0A080010308A00A1
:102018000408840A82070034543465346D347034FB
:102028003A342034483475346D343A3420344134E9
:0A2038006734753461343A34003423
:102B5E0064008001840A0406031900340406B02DB3
:102B6E000A168A11DF250A168A1183160313111409
:102B7E0008000A168A11DF250A168A118316031316
:102B8E00111508000A168A11DF250A168A11720815
:102B9E008312031393000800F20083160313981C8C
:102BAE00D92DDA2DD42D7208831203139900080043
:102BBE00831603131419E42DE52DDF2D11081F398B
:102BCE00031DEA2DEB2DDF2D080000300A168A11A9
:102BDE003A260A168A1101300A168A113A260A1660
:102BEE008A110800F20072088316031399009A01E5
:102BFE001815181218139816831203130C120800C6
:102C0E00831203138C1E0C2E0D2E0F2E1A08FA0093
:102C1E0071088A00700E8300FE0E7E0E0900F2000F
:102C2E0072088316031399009A01831603178711EE
:102C3E008312031398171816831603138C160800A5
:102C4E007E088A007F0882000A168A1127260A1635
:102C5E008A118000840A04087D0603190034FF0AD5
:102C6E000319FE0A2B2EF5008312031308117508A3
:102C7E000A168A1154260A168A118312031388150E
:102C8E000B30F4006230F300F30B4B2EF40B4B2E93
:102C9E0000008312031388110800F200721C582ED4
:102CAE00592E5D2E831203130816602E8312031302
:102CBE000812F21C632E642E662E8816672E88125A
:102CCE00721D6A2E6B2E6D2E08176E2E0813F21DB6
:102CDE00712E722E742E8817752E8813080083128B
:102CEE000313A400A001A1017208F400F5017408F9
:102CFE00A2007508A300241C852E862E8C2E220879
:102D0E00A0070318A10A2308A10701300310A20D82
:102D1E00A30DFF3E031D8D2E0310A40C2408031DCE
:102D2E00992E9A2E822E2108F3002008F200080018
:102D3E000A168A11DF250A168A11831603139115B6
:102D4E000A168A11DF250A168A1183120313130835
:102D5E00F400F5017408F6007508F7000A168A11DA
:102D6E00DF250A168A1172037304031DBF2EC02EAF
:102D7E00C42E831603139112C72E831603139116B6
:102D8E0011167708F3007608F200080070308316EB
:102D9E0003138F040F1483160317880189018316FA
:102DAE0003138601880187018312031386018801AC
:102DBE0087010030A9000130A8008630A700A0309E
:102DCE00A6000A168A1136270A168A110A128A15C1
:102DDE0072200A168A1133300A168A1116260A161E
:102DEE008A1133300A168A11F9250A168A110B1721
:102DFE008B170800F60076080F39F4007608F039C4
:102E0E00F5008312031308157508F3000430031040
:102E1E00F30CFF3E031D0E2F73080A168A1154265B
:102E2E000A168A118312031388151A30F300F30B56
:102E3E001E2F000083120313881174080A168A11BC
:102E4E0054260A168A118312031388151A30F300BA
:102E5E00F30B2F2F00008312031388110800283064
:102E6E008312031394008316031391018312031329
:102E7E002608AA002708AB002808AC002908AD00D8
:102E8E0002300310AA0DAB0DAC0DAD0DFF3E031DB0
:102E9E00482F2D08F5002C08F4002B08F3002A0803
:102EAE00F2000030F9007A30F8001230F7000030EE
:102EBE00F6000A128A152E210A168A117208FF3E92
:102ECE0083160313930094018715071608008312C7
:102EDE000313A301A401972F23087707A1007808F5
:102EEE00A0000318A00AA31F7D2FA00383120313B3
:102EFE002008A2002208FF00210884000A168A1169
:102F0E0000200A168A110A168A1101270A168A113A
:102F1E00013083120313A3070318A40A0030A40779
:102F2E0023087707A1007808A0000318A00AA31FA2
:102F3E00A12FA003831203132008A2002208FF0072
:102F4E00210884000A168A1100200A168A11003AF6
:102F5E00031DB22FB32F732F080083120313A0008B
:102F6E002003031DBB2FBC2FDB2F76087F3EA30053
:102F7E002308F70004300310F70CFF3E031DC22F89
:102F8E007708A10023080F39A20021080A168A111A
:102F9E003A260A168A118312031322080A168A1178
:102FAE003A260A168A11FF2F02302006031DE02F43
:102FBE00E12FFF2F7608BF3EA3002308F700043051
:102FCE000310F70CFF3E031DE72F7708A10023081F
:102FDE000F39A20021080A168A113A260A168A11FA
:102FEE008312031322080A168A113A260A168A1128
:022FFE000800C9
:08400000FF3FFF3FFF3FFF3FC0
:04400E00D420FF3F7C
:00000001FF
