:060000000A128A110C280F
:10000800FE00030EF1000A08F2000A128A111F28E6
:100018000A128A110F28F701F801F901FA0183126F
:100028000313B001B101B201B301B401B5018301F9
:100038000A128A119028831203138C1D242825285C
:1000480075281412141B29282A282E28941F2D28B5
:100058002E2833281308F700141394131416831644
:100068000313941A38283928532814193C283D2892
:100078005328831203131308F7008C1114168316E0
:100088000313141C48284928432883120313130810
:100098008800A630F000F00B4F2800007228941A50
:1000A800562857287228141D5A285B28722883124C
:1000B80003131308F7008316031314107908831227
:1000C800031393001416A630F000F00B6928000003
:1000D800831603131418712872286C2883120313CB
:1000E8008C110B1D7828792882280815FE308F007E
:1000F80030088E001014633081000B110C1C852809
:1001080086288928081110100C1072088A00710EB0
:100118008300FE0E7E0E09007030831603138F04D1
:100128000F148316031788018901831603138501A9
:10013800880183120313850140300A128A11BA21FB
:100148000A128A110A128A11E4210A128A110A1261
:100158008A11D4210A128A118B170B178230831245
:100168000313AE00DD30AD00AD0BB828AE0BB828D8
:100178003430F60079300A128A11EE200A128A11F8
:100188007A08803AFF0080307F02031DCD281C309A
:100198007902031CD028D128D62883120313B00172
:1001A800B101DC28FF3083120313B0000030B10026
:1001B8000D3083120313AF002D30AE00D730AD00E1
:1001C800AD0BE428AE0BE428AF0BE428B2280A12E2
:1001D8008A110C2883120313A6000A128A119F2180
:1001E8000A128A110A128A1181210A128A117803C5
:1001F800031DFF280029192983120313AC012C08B9
:10020800273E84000A128A1141210A128A11831397
:100218008000013083120313A0002008AC070530CA
:100228002C02031C182919290329831203132708F0
:100238002807A000A101A10D29082007A20000306D
:10024800031801302107A3002A082207A400003060
:10025800031801302307A5002B0824062504031DD5
:100268003629372940297608840027088313800017
:1002780026088400290880000800F501831203136A
:10028800051D4729482942291330F300F30B4A2951
:100298004D29831203130519522953296329013063
:1002A800F3007508073C013E5B290310F30DFF3E80
:1002B800031D59297308FF3A7405F40075290130A4
:1002C800F3007508073C013E6B290310F30DFF3E50
:1002D800031D692973087404F40005197429752924
:1002E80071290130F3007308F50708307502031C03
:1002F8007E297F29422974080800F8011A30F30082
:10030800F30B842900008312031305198C298D2906
:100318009E293530F300F30B8F2983120313051D33
:10032800962997299E29F801F80A1A30F300F30B49
:100338009B29000008008316031305118312031379
:1003480005112F30F400BF30F300F30BA929F40B8B
:10035800A929AE298312031305151330F300F30BF3
:10036800B329B6298316031305150800F30073088B
:1003780083160313930036308312031394008030DE
:1003880083160313940001309100871507168B1705
:100398000B17831203138C11831603138C15080093
:1003A8008312031390161016901110159010101444
:1003B800FE308F008E010C10831603130C140800F6
:1003C800831603138112011281110115811401147E
:0E03D80063308312031381008B160B11080093
:08400000FF3FFF3FFF3FFF3FC0
:04400E00D420FF3F7C
:00000001FF
