:060000000A128A110C280F
:10000800FE00030EF2000A08F3000A128A118D2F6F
:100018000A128A110F28F601F701F801F90183166F
:100028000313A801A901AA01AB0183010A128A15C9
:100038003A2D8312031331088039BB003108B6000A
:100048003607C100B01F29282A282B284114410847
:1000580003192F2830283F28410A031D3428352842
:100068003D280030B1000030B0000030AF00003053
:10007800AE00B01747280030B1000030B0000030A3
:10008800AF000030AE0035088039B6003608BB0630
:100098003508B6003607BC00B41F53285428552825
:1000A8003C143C08031959285A2869283C0A031D9E
:1000B8005E285F2867280030B5000030B4000030A3
:1000C800B3000030B200B41771280030B50000301A
:1000D800B4000030B3000030B2003C0803197528A2
:1000E80076287B284108031D7A287B28842800303D
:1000F800B1000030B0000030AF000030AE00612B1E
:100108002E08F40034080A128A1599240A128A1152
:10011800750883120313C7007408C6004608B600A2
:10012800B701B801B9013908C0003808BF0037085D
:10013800BE003608BD004708B600B701B801B901CE
:100148003908C5003808C4003708C3003608C2009B
:100158002F08F40033080A128A1599240A128A1102
:10016800750883120313C7007408C6004608B60052
:10017800B701B801B9013608BD07370803110318DC
:10018800013E0319C828BE07380803110318013EA9
:100198000319CF28BF07390803110318013E0319B3
:1001A800D628C0074708B600B701B801B901360814
:1001B800C207370803110318013E0319E428C307CF
:1001C800380803110318013E0319EB28C40739083E
:1001D80003110318013E0319F228C5073008F4007B
:1001E80032080A128A1599240A128A11750883128C
:1001F8000313C7007408C6004608B600B701B80163
:10020800B9013608BD07370803110318013E031961
:100218000E29BE07380803110318013E03191529D2
:10022800BF07390803110318013E03191C29C00729
:100238004708B600B701B801B9013608C207370840
:1002480003110318013E03192A29C30738080311AB
:100258000318013E03193129C4073908031103188B
:10026800013E03193829C5070830B6000310BD0D33
:10027800BE0DBF0DC00DB60B3A292F08F400320889
:100288000A128A1599240A128A117508831203130F
:10029800C7007408C6004608B6004708B700B8018A
:1002A800B9013608BD07370803110318013E0319C1
:1002B8005E29BE07380803110318013E0319652992
:1002C800BF07390803110318013E03196C29C00739
:1002D8002E08F40033080A128A1599240A128A1182
:1002E800750883120313C7007408C6004608B600D1
:1002F8004708B700B801B9013608BD073708031128
:100308000318013E03198929BE0738080311031889
:10031800013E03199029BF07390803110318013E4C
:1003280003199729C0070830B6000310BD0DBE0D8C
:10033800BF0DC00DB60B99292E08F40032080A1219
:100348008A1599240A128A11750883120313C700A3
:100358007408C6004608B6004708B700B801B901D6
:100368003608BD07370803110318013E0319BD29D4
:10037800BE07380803110318013E0319C429BF0733
:10038800390803110318013E0319CB29C0072F08A8
:10039800F40034080A128A1599240A128A11750879
:1003A80083120313C7007408C6004608B60047083E
:1003B800B700B801B9013608C20737080311031896
:1003C800013E0319E829C307380803110318013E41
:1003D8000319EF29C407390803110318013E03194B
:1003E800F629C5073008F40033080A128A1599243B
:1003F8000A128A11750883120313C7007408C6000D
:100408004608B6004708B700B801B9013608C20760
:10041800370803110318013E0319132AC3073808C4
:1004280003110318013E03191A2AC40739080311D6
:100438000318013E0319212AC5073008F4003408BF
:100448000A128A1599240A128A117508831203134D
:10045800C7007408C6004608B6004708B700B801C8
:10046800B90108300310B60DB70DB80DB90DFF3E30
:10047800031D362A3608C207370803110318013E40
:100488000319472AC307380803110318013E031943
:100498004E2AC407390803110318013E0319552AC7
:1004A800C5073D08B6003E08B7003F08B800400839
:1004B800B90018300310B90CB80CB70CB60CFF3ED5
:1004C800031D5E2A3608C207370803110318013EC8
:1004D80003196F2AC307380803110318013E0319CB
:1004E800762AC407390803110318013E03197D2A27
:1004F800C5070830B6000310BD0DBE0DBF0DC00DF9
:10050800B60B7F2A41083C07B600B701B70D36087D
:10051800823EC60037080318013EFF3EC700B12AD5
:100528000130B6000310C20DC30DC40DC50DB60BC6
:10053800962AC01FA02AA12AA22A42140130B60076
:100548000310BD0DBE0DBF0DC00DB60BA42AFF30A4
:10055800C6070318C70AFF30C707C41FB42AB52A3D
:10056800942ABC01C01FB92ABA2AD62AFF303D05F1
:10057800B600FF303E05B700FF303F05B8007F30BA
:100588004005B90039083804370436040319CD2A60
:10059800CE2AD12ABC01BC0AD62A421CD42AD52A82
:1005A800D62ACE2A3C080319DA2ADB2A0C2B01307A
:1005B800C207003003180130C307003003180130A8
:1005C800C407003003180130C507451CEC2AED2A82
:1005D8000C2B4208B6004308B7004408B800450889
:1005E800B9000130BA00390DB90CB80CB70CB60C0B
:1005F800BA0BF72A3908C5003808C4003708C30001
:100608003608C2000130C6070318C70A0030C707FA
:100618004708803AFF0080307F02031D152BFF300A
:100628004602031C182B192B242B7F30831203132B
:10063800C5008030C4000030C3000030C200552B14
:10064800831203134708803AFF0080307F02031D9E
:100658002F2B013046020318322B332B3F2B00304F
:1006680083120313C5000030C4000030C3000030FB
:10067800C200BB01552B831203134608C100FF308B
:10068800C205FF30C3057F30C4050030C505411CD5
:100698004E2B4F2B502BC4174108B6000310360CB5
:1006A800C5003B08B6003608C5044508B100440833
:1006B800B0004308AF004208AE00080083120313DD
:1006C8004B088039D8004B08D0005007DA00CA1F01
:1006D8006E2B6F2B702B5A145A080319742B752B19
:1006E800852B5A0A031D792B7A2B822B0030CB00DD
:1006F8000030CA000030C9000030C800CA17CB015A
:100708008D2B0030CB000030CA000030C90000300B
:10071800C8004F088039D900590858060319952B85
:10072800962B972B58174F08D0005007D900CE1F8B
:100738009E2B9F2BA02B591459080319A42BA52BCA
:10074800B52B590A031DA92BAA2BB22B0030CF00B9
:100758000030CE000030CD000030CC00CE17CF01E5
:10076800BD2B0030CF000030CE000030CD0000306F
:10077800CC005A0859020318C22BC32BE92B581F67
:10078800C62BC72BCB2B8030D0005008D8065A0870
:10079800DB005908DA005B08D9004808DB004C0880
:1007A800C8005B08CC004908DB004D08C9005B089D
:1007B800CD004A08DB004E08CA005B08CE004B0893
:1007C800DB004F08CB005B08CF00DB015908D000E5
:1007D800D1015108D3005A085002D200031CD30398
:1007E8005308803AFF0080307F02031DFD2B1A302A
:1007F8005202031C002C012C382C831203134B08C3
:100808004A0449044804031D0A2C0C2C01300D2C01
:100818000030DB000030CB000030CA000030C900D7
:100828000030C8005908DA00402C5B1C1C2C1D2C19
:10083800242C5B08D0000310500C0138DB00262C58
:100848000310DB0C481C292C2A2C2B2CDB1701301D
:10085800D0004B0DCB0CCA0CC90CC80CD00B2D2CDE
:100868000130D0005008DA078312031359085A02DE
:10087800031C3F2C402C192C581B432C442C8D2C2A
:100888005A08031D482C492C522C0030CB0000304C
:10089800CA000030C9000030C800B92D4C08C8078C
:1008A8004D0803110318013E03195B2CC9074E08B4
:1008B80003110318013E0319622CCA074F080311DC
:1008C8000318013E0319692CCB074B1C6C2C6D2CAB
:1008D800412D5B1C702C712C782C5B08D000031008
:1008E800500C0138DB007A2C0310DB0C481C7D2CE3
:1008F8007E2C7F2CDB170130D0004B0DCB0CCA0CA3
:10090800C90CC80CD00B812C0130D0005008DA0774
:10091800412D4B08803AFF004F08803A7F02031DA3
:100928009F2C4E084A02031D9F2C4D084902031DA7
:100938009F2C4C0848020318A22CA32CFB2CFF3038
:10094800D000FF30D100FF30D200FF30D3004C0878
:10095800D4004D08D5004E08D6004F08D7004808E7
:10096800D4024908031C490FBA2CBB2CD5024A08EB
:10097800031C4A0FC02CC12CD6024B08031C4B0F7A
:10098800C62CC72CD7025408D00755080318550F92
:10099800CE2CCF2CD10756080318560FD42CD52CA3
:1009A800D20757080318570AD3075308CB00520831
:1009B800CA005108C9005008C8008030D00050084B
:1009C800D806DB09DB0A5B08031DEB2CEC2C092D90
:1009D8000130C807003003180130C9070030031878
:1009E8000130CA07003003180130CB07092D4C0825
:1009F800C8024D08031C4D0FC9024E08031C4E0FB8
:100A0800CA024F08031C4F0FCB024B084A04490483
:100A18004804031D102D112D3D2D5B08031D152DB8
:100A2800162D3D2D0030CB000030CA000030C90023
:100A38000030C800B92D0130D0000310C80DC90D11
:100A4800CA0DCB0DD00B212DDB1F2B2D2C2D2D2DC1
:100A580048145B1C302D312D342D0314DB0D362D3D
:100A68000310DB0D5A0803193A2D3B2D3D2D01309B
:100A7800DA02CA1F402D412D1F2DD901DB1F452D3C
:100A8800462D542D5B087F3903194B2D4C2D4F2DC6
:100A9800D901D90A542D481C522D532D542D4C2DB3
:100AA80059080319582D592D8D2D0130C8070030CC
:100AB80003180130C907003003180130CA07003095
:100AC80003180130CB074B1C6A2D6B2D8D2D480860
:100AD800D0004908D1004A08D2004B08D3000130A1
:100AE800D400530DD30CD20CD10CD00CD40B752DD3
:100AF8005308CB005208CA005108C9005008C80062
:100B08005A0A0319882D892D8D2D0130D0005008DF
:100B1800DA075A0A0319912D922D972D5A08031DA9
:100B2800962D972DA52D0030CB000030CA0000303F
:100B3800C9000030C8005A08031DA32DA42DA52DF7
:100B4800D8015A1CA82DA92DAB2DCA17AF2D7F305F
:100B5800D0005008CA055A08D0000310500CCB002A
:100B6800D81FB72DB82DB92DCB1708008312031342
:100B78004F088039D9004F08D0005007E000CE1F39
:100B8800C62DC72DC82D601460080319CC2DCD2D96
:100B9800DD2D600A031DD12DD22DDA2D0030CF00B6
:100BA8000030CE000030CD000030CC00CE17CF0191
:100BB800E52D0030CF000030CE000030CD000030F1
:100BC800CC004B088039D0005008D9064B08D0001B
:100BD8005007E100CA1FF12DF22DF32D61146108B1
:100BE8000319F72DF82D082E610A031DFC2DFD2D84
:100BF800052E0030CB000030CA000030C90000309C
:100C0800C800CA17CB01102E0030CB000030CA0034
:100C18000030C9000030C8004B084A0449044804A1
:100C2800031D172E182E312E0030CF000030CE00B5
:100C38000030CD000030CC008030CE047F30CF04AF
:100C48005908D0005008CF044F08CB004E08CA00FE
:100C58004D08C9004C08C8008C2F6008031D352EAC
:100C6800362E3F2E0030CB000030CA000030C900BD
:100C78000030C8008C2F6008D000D1015108D30083
:100C880061085002D200031CD30352087F3EDA00E9
:100C980053080318013E003EDB004F08D8004E08F9
:100CA800D7004D08D6004C08D5000030CF000030E2
:100CB800CE000030CD000030CC000030DF00003026
:100CC800DE000030DD000030DC00E101B52E6108F7
:100CD80003196F2E702E902E0130D0000310D50D01
:100CE800D60DD70DD80DD00B722E0130D0000310C1
:100CF800CC0DCD0DCE0DCF0DD00B7B2EDF1F852E4D
:100D0800862E872E4C140130D0000310DC0DDD0D2B
:100D1800DE0DDF0DD00B892E4B085802031D9E2EC9
:100D28004A085702031D9E2E49085602031D9E2E8F
:100D380048085502031CA12EA22EB12E5F174808A1
:100D4800D5024908031C490FD6024A08031C4A0F5A
:100D5800D7024B08031C4B0FD8020130D0005008B3
:100D6800E1071A306102031CBA2EBB2E6B2E5808FD
:100D78005704560455040319C22EC32EE22E5C14E0
:100D8800E22E0130D0000310CC0DCD0DCE0DCF0DCD
:100D9800D00BC72EDF1FD12ED22ED32E4C140130EC
:100DA800D0000310DC0DDD0DDE0DDF0DD00BD52ED0
:100DB800FF30DA070318DB0AFF30DB07CE1FE52E0A
:100DC800E62EC52EE101DF1FEA2EEB2E072FFF309E
:100DD8005C05D000FF305D05D100FF305E05D20014
:100DE8007F305F05D300530852045104500403199F
:100DF800FE2EFF2E022FE101E10A072F4C1C052FC2
:100E0800062F072FFF2E610803190B2F0C2F3D2FDC
:100E18000130CC07003003180130CD07003003182B
:100E28000130CE07003003180130CF074F1C1D2FAB
:100E38001E2F3D2F4C08D0004D08D1004E08D2007F
:100E48004F08D3000130D400530DD30CD20CD10C71
:100E5800D00CD40B282F5308CF005208CE005108CD
:100E6800CD005008CC000130DA070318DB0A003047
:100E7800DB075B08803AFF0080307F02031D462FA6
:100E8800FF305A02031C492F4A2F582FFF30831274
:100E98000313DA000030DB000030CF000030CE0052
:100EA8000030CD000030CC00831203135B08803A79
:100EB800FF0080307F02031D632F01305A020318A0
:100EC800662F672F742F83120313DA01DB010030BA
:100ED800CF000030CE000030CD000030CC00D9016A
:100EE800831203135A08E000601C7B2F7C2F7E2F8F
:100EF800CE17822F7F30D0005008CE056008D00072
:100F08000310500CCF005908D0005008CF04282EE9
:100F18000800831203138C1D922F932FEA2F1412AB
:100F2800141B972F982F9C2F941F9B2F9C2FA12F1A
:100F38001308F90014139413141683160313941A40
:100F4800A62FA72FC82F1419AA2FAB2FC82F83128B
:100F580003131308F9008C11141683160313141CB9
:100F6800B62FB72FB12F831203131308F000F10126
:100F7800700883160313A8007108A900A630F000B2
:100F8800F00BC42F0000E72F941ACB2FCC2FE72F9C
:100F9800141DCF2FD02FE72F831203131308F90046
:100FA8008316031314102A088312031393001416CC
:100FB800A630F000F00BDE2F000083160313141880
:100FC800E62FE72FE12F831203138C1173088A0091
:100FD800720E8300FE0E7E0E0900831203139F1407
:100FE8009F18F72FF82FF42F1E08A000A101200842
:080FF800F4002108F5000800D7
:1018FE00F400740883160313930036308312031317
:10190E0094008030831603139400013091008715E4
:10191E0007168B170B17831203138C1183160313E1
:10192E008C15080083120313A600A201A3017408EC
:10193E00A000A1012008A4002108A500261CA82CA7
:10194E00A92CAF2C2408A2070318A30A2508A30765
:10195E0001300310A40DA50DFF3E031DB02C031086
:10196E00A60C2608031DBC2CBD2CA52C2308F500A7
:10197E002208F40008000310831203135E0D5F0D9E
:10198E00E5006508031DCC2CCD2CD62C0030DF00D5
:10199E000030DE000030DD000030DC00392D5C0848
:1019AE00E0005D08E1005E08E2005F08E3001F3022
:1019BE000310E30CE20CE10CE00CFF3E031DDF2CE8
:1019CE006008E400DE17FF30DC05FF30DD05FF3078
:1019DE00DE050030DF059630E502E51FF72CF82C0A
:1019EE00122D6508803A973E0318FE2CFF2C002D11
:1019FE00CD2C01300310DF0CDE0CDD0CDC0CFF3EB9
:101A0E00031D012D0130E0006008E507031D102DB8
:101A1E00112D002D292D20306502031C172D182D98
:101A2E00242DCD2C0130E0000310DC0DDD0DDE0D7C
:101A3E00DF0DE00B1B2D0130E5026508031D282D7F
:101A4E00292D192D640803192D2D2E2D392DDC0964
:101A5E00DD09DE09DF09DC0A0319DD0A0319DE0AD6
:101A6E000319DF0A08007030831603138F040F1456
:101A7E0083160317880189018316031388018701D2
:101A8E00850183120313880187010230F4000030B0
:101A9E00F5000A128A15BC250A128A1550300A1250
:101AAE008A157F240A128A150A128A11F1270A1240
:101ABE008A15750883160313AB007408AA002B0849
:101ACE0083120313E700831603132A0883120313EA
:101ADE00E6000030E800E900FF30EA000030EB00DD
:101AEE000030EC00ED00C830EE000030EF000A12BE
:101AFE008A1506270A128A1583120313670883169E
:101B0E000313A70083120313660883160313A6009C
:101B1E002708803AFF0080307F02031D982DBF30CA
:101B2E002602031C9B2D9C2DB22D83160313290810
:101B3E00803AFF0080307F02031DA72D123028024D
:101B4E000318AA2DAB2DB22D83120313881408147B
:101B5E00080888155B2D83120313881008100808D7
:101B6E0088115B2D0A128A110C28831603139F13FA
:101B7E001F129F12831203131F083F3980389F00D4
:101B8E00740AA0000130A1000030A200D12D031074
:101B9E00A10DA20DA00BCE2D23082104A300240815
:101BAE002204A400262E831603170808831203139B
:101BBE002304831603178800831603130508831264
:101BCE0003132304831603138500392E831603177C
:101BDE000808831203132304831603178800831641
:101BEE0003130508831203132304831603138500BE
:101BFE00392E831603170808831203132304831642
:101C0E000317880083160313050883120313230496
:101C1E00831603138500392E8316031708088312C3
:101C2E000313230483160317880083160313050872
:101C3E00831203132304831603138500392E7508AC
:101C4E00003A03192B2E392E7408003A0319DA2D97
:101C5E00013A0319ED2D033A0319002E013A031927
:101C6E00132E392E74088312A000A00DA00D1F088C
:101C7E002006C33920069F001F1420308312031341
:101C8E00A000A00B482E0000080083120313A8002A
:101C9E0028080319532E542E682EA31F572E582E84
:101CAE00682E2009AA002109AB002209AC002309E5
:101CBE00AD00AA0A0319AB0A0319AC0A0319AD0A3F
:101CCE00702E2308AD002208AC002108AB002008BE
:101CDE00AA002308220421042004031D772E782E47
:101CEE00812E0030A3000030A2000030A100003091
:101CFE00A000052F9630A900912E0130A4002408D3
:101D0E00A90701300310AD0CAC0CAB0CAA0CFF3EB6
:101D1E00031D892EFE302D05031D962E972E842E23
:101D2E00B32E0130A4002408A9070130AA07003001
:101D3E0003180130AB07003003180130AC07003038
:101D4E0003180130AD0701300310AD0CAC0CAB0C19
:101D5E00AA0CFF3E031DAB2EFF302D05031DB82E22
:101D6E00B92E982EC52E0130A9020130A400031001
:101D7E00AA0DAB0DAC0DAD0DA40BBE2EAC1BC82E1B
:101D8E00C92ECF2E023029020318CE2ECF2EBA2EF8
:101D9E002918D22ED32EDB2EFF30AA05FF30AB052D
:101DAE007F30AC05FF30AD050310A90C2908A40047
:101DBE00A501A601A70118300310A40DA50DA60DAF
:101DCE00A70DFF3E031DE32E2408AA042508AB042D
:101DDE002608AC042708AD0428080319F72EF82EA0
:101DEE00FD2EA31FFB2EFC2EFD2EAD172D08A300DE
:101DFE002C08A2002B08A1002A08A00008008312BC
:101E0E00031368086A02A0006908031C690A6B02C2
:101E1E00A100A201A11BA2032208A30001300A12F5
:101E2E008A154C260A128A15831203132308CB0037
:101E3E002208CA002108C9002008C8003F30B1009E
:101E4E008030B0000030AF000030AE006C086E0283
:101E5E00A0006D08031C6D0A6F02A100A201A11B58
:101E6E00A2032208A30001300A128A154C260A1278
:101E7E008A15831203132308B5002208B400210823
:101E8E00B3002008B2000A128A111D200A128A1508
:101E9E00831203133108CF003008CE002F08CD0077
:101EAE002E08CC000A128A11BA250A128A1583123C
:101EBE0003134B0883160313A300831203134A085C
:101ECE0083160313A2008312031349088316031308
:101EDE00A10083120313480883160313A000831274
:101EEE0003136C08A0006D08A1000030A11BFF3089
:101EFE00A200A30001300A128A154C260A128A1576
:101F0E00831203132308CF002208CE002108CD0030
:101F1E002008CC0068086602A0006908031C690A44
:101F2E006702A100A201A11BA2032208A300013097
:101F3E000A128A154C260A128A15831203132308D5
:101F4E00B5002208B4002108B3002008B2008316A1
:101F5E000313230883120313B100831603132208FD
:101F6E0083120313B0008316031321088312031385
:101F7E00AF0083160313200883120313AE000A1258
:101F8E008A111D200A128A15831203133108CB0001
:101F9E003008CA002F08C9002E08C8000A128A117C
:101FAE0062230A128A15831203134B08DF004A08B4
:101FBE00DE004908DD004808DC000A128A15C2243A
:101FCE000A128A15831203135D0883160313A500E4
:101FDE00831203135C0883160313A40025088312CF
:101FEE000313E70083160313240883120313E6007A
:021FFE000800D9
:08400000FF3FFF3FFF3FFF3FC0
:04400E00D420FF3F7C
:00000001FF
