:060000000A128A1110280B
:10000800FE00030E83120313C6000A08C7007F0808
:10001800C8000A128A11A82A0A128A111328831200
:100028000313C901CA01CB01CC0183010A128A1149
:10003800B42B8312031327088039B1002708A800BE
:100048002807B800A61F29282A282B28381438087A
:1000580003192F2830284028380A031D342835284A
:100068003D280030A7000030A6000030A500003071
:10007800A400A617A70148280030A7000030A60052
:100088000030A5000030A40023088039A800280803
:10009800B1062308A8002807B900A21F542855282C
:1000A80056283914390803195A285B286B28390A45
:1000B800031D5F28602868280030A3000030A200D4
:1000C8000030A1000030A000A217A301732800305F
:1000D800A3000030A2000030A1000030A0002308D7
:1000E800220421042004031D7A287B289428003048
:1000F800A7000030A6000030A5000030A400803022
:10010800A6047F30A7043108A8002808A7042708F8
:10011800A3002608A2002508A1002408A000EF29B2
:100128003808031D98289928A2280030A300003019
:10013800A2000030A1000030A000EF293808A80074
:10014800A9012908AB0039082802AA00031CAB033F
:100158002A087F3EB2002B080318013E003EB30078
:100168002708B0002608AF002508AE002408AD0017
:100178000030A7000030A6000030A5000030A40021
:100188000030B7000030B6000030B5000030B400D1
:10019800B901182939080319D228D328F3280130BE
:1001A800A8000310AD0DAE0DAF0DB00DA80BD528EE
:1001B8000130A8000310A40DA50DA60DA70DA80BCE
:1001C800DE28B71FE828E928EA2824140130A80007
:1001D8000310B40DB50DB60DB70DA80BEC28230808
:1001E8003002031D012922082F02031D01292108BD
:1001F8002E02031D012920082D02031C04290529AC
:10020800142937172008AD022108031C210FAE025C
:100218002208031C220FAF022308031C230FB0027D
:100228000130A8002808B9071A303902031C1D2913
:100238001E29CE2830082F042E042D040319252941
:1002480026294529341445290130A8000310A40D96
:10025800A50DA60DA70DA80B2A29B71F34293529E6
:10026800362924140130A8000310B40DB50DB60DBD
:10027800B70DA80B3829FF30B2070318B30AFF30AF
:10028800B307A61F482949292829B901B71F4D29AD
:100298004E296A29FF303405A800FF303505A9002A
:1002A800FF303605AA007F303705AB002B082A043B
:1002B800290428040319612962296529B901B90AA1
:1002C8006A29241C682969296A29622939080319B5
:1002D8006E296F29A0290130A407003003180130C6
:1002E800A507003003180130A607003003180130B5
:1002F800A707271C80298129A0292408A8002508E8
:10030800A9002608AA002708AB000130AC002B0D75
:10031800AB0CAA0CA90CA80CAC0B8B292B08A700BA
:100328002A08A6002908A5002808A4000130B20759
:100338000318B30A0030B3073308803AFF0080304F
:100348007F02031DA929FF303202031CAC29AD2905
:10035800BB29FF3083120313B2000030B300003012
:10036800A7000030A6000030A5000030A4008312CA
:1003780003133308803AFF0080307F02031DC6292B
:10038800013032020318C929CA29D7298312031355
:10039800B201B3010030A7000030A6000030A5006C
:1003A8000030A400B101831203133208B800381CCE
:1003B800DE29DF29E129A617E5297F30A8002808CA
:1003C800A6053808A8000310280CA7003108A800C3
:1003D8002808A7048B280800F80078080319F529CD
:1003E800F6290A2AF31FF929FA290A2A7009FA00B4
:1003F8007109FB007209FC007309FD00FA0A031970
:10040800FB0A0319FC0A0319FD0A122A7308FD00E6
:100418007208FC007108FB007008FA007308720487
:1004280071047004031D192A1A2A232A0030F300C4
:100438000030F2000030F1000030F000A72A9630BA
:10044800F900332A0130F4007408F9070130031069
:10045800FD0CFC0CFB0CFA0CFF3E031D2B2AFE3096
:100468007D05031D382A392A262A552A0130F40029
:100478007408F9070130FA07003003180130FB0748
:10048800003003180130FC07003003180130FD0765
:1004980001300310FD0CFC0CFB0CFA0CFF3E031D95
:1004A8004D2AFF307D05031D5A2A5B2A3A2A672AFE
:1004B8000130F9020130F4000310FA0DFB0DFC0DB8
:1004C800FD0DF40B602AFC1B6A2A6B2A712A023084
:1004D80079020318702A712A5C2A7918742A752AF5
:1004E8007D2AFF30FA05FF30FB057F30FC05FF3021
:1004F800FD050310F90C7908F400F501F601F70180
:1005080018300310F40DF50DF60DF70DFF3E031D21
:10051800852A7408FA047508FB047608FC04770831
:10052800FD0478080319992A9A2A9F2AF31F9D2AFD
:100538009E2A9F2AFD177D08F3007C08F2007B089D
:10054800F1007A08F00008008C1DAB2AAC2AE02ADA
:100558001412141BB02AB12AB52A941FB42AB52A3A
:10056800BA2A1308CC001413941314168316031311
:10057800941ABF2AC02ADD2A141DC32AC42ADD2AD8
:10058800831203131308CC00831603131410831269
:100598000313080893001416A53083120313C4002C
:1005A800C40BD42AD72A831603131418DC2ADD2A8D
:1005B800D72A831203138C110B1CE32AE42A312B4C
:1005C8008B11061EE82AE92AEA2A1014061AED2ACF
:1005D800EE2A312B10100F08C400C5014408C500CD
:1005E800C40144080E04F0004508F100F201F11BB3
:1005F800F2037208F30001300A128A11F0210A127C
:100608008A11730883120313A7007208A6007108E1
:10061800A5007008A4004230A3006B30A200473048
:10062800A100AE30A0000A128A111D200A128A11F8
:10063800831203132308BD002208BC002108BB0055
:100648002008BA000A128A113C230A128A1183125E
:1006580003133B08CA003A08C9000B108B15480859
:10066800FF0047088A00460E8300FE0E7E0E090032
:100678000310831203133C0D3D0DC3004308031DF3
:10068800462B472B502B0030BD000030BC000030FB
:10069800BB000030BA00B32B3A08BE003B08BF00CD
:1006A8003C08C0003D08C1001F300310C10CC00C3D
:1006B800BF0CBE0CFF3E031D592B3E08C200BC17E1
:1006C800FF30BA05FF30BB05FF30BC050030BD0563
:1006D8009630C302C31F712B722B8C2B4308803AB0
:1006E800973E0318782B792B7A2B472B0130031070
:1006F800BD0CBC0CBB0CBA0CFF3E031D7B2B0130A0
:10070800BE003E08C307031D8A2B8B2B7A2BA32B15
:1007180020304302031C912B922B9E2B472B013038
:10072800BE000310BA0DBB0DBC0DBD0DBE0B952B45
:100738000130C3024308031DA22BA32B932B4208AD
:100748000319A72BA82BB32BBA09BB09BC09BD09F0
:10075800BA0A0319BB0A0319BC0A0319BD0A08001F
:100768000A128A11FC230A128A1110308312031309
:100778009000490888008F018E0106140530831601
:100788000313A100A10BC62BC92B83120313061058
:10079800023083160313A3000430A200B930A1006D
:1007A800A10BD42BA20BD42BA30BD42BDB2B8312A2
:1007B80003134A0883160313A2008312031349087C
:1007C80083160313A1000310A10DA20D2108023EF8
:1007D80083120313C9008316031322080318013E6A
:1007E800003E83120313CA00BD2B0A128A11102877
:1007F800831603178801890183160313061006164A
:10080800880183120313860188018B170B17303078
:100818000A128A1118240A128A1110300A128A112F
:1008280032240A128A11080083160313A000200834
:100838009300363083120313940080308316031319
:10084800940001309100871507168B170B17831238
:1008580003138C11831603138C15080083160313D6
:0C086800A0000B108B1520089600080063
:08400000FF3FFF3FFF3FFF3FC0
:04400E00D420FF3F7C
:00000001FF
