:060000000A128A110C280F
:10000800FE00030EF0000A08F1000A128A15A32E5A
:100018000A128A110F2883135C3084006E300A128A
:100028008A15B1260A128A1183010A128A11612BD4
:100038008312031329088039B3002908AE002E075C
:10004800B900A81F282829282A283914390803198B
:100058002E282F283E28390A031D332834283C2807
:100068000030A9000030A8000030A7000030A6002A
:10007800A81746280030A9000030A8000030A700C3
:100088000030A6002D088039AE002E08B3062D08D2
:10009800AE002E07B800AC1F522853285428381435
:1000A80038080319582859286828380A031D5D2874
:1000B8005E2866280030AD000030AC000030AB0090
:1000C8000030AA00AC1770280030AD000030AC003A
:1000D8000030AB000030AA003808031974287528CE
:1000E8007A283908031D79287A2883280030A9003E
:1000F8000030A8000030A7000030A600602B2608BA
:10010800F2002C080A128A1539270A128A11730874
:1001180083120313BF007208BE003E08AE00AF0191
:10012800B001B1013108B7003008B6002F08B5009A
:100138002E08B4003F08AE00AF01B001B10131088C
:10014800BD003008BC002F08BB002E08BA002708E5
:10015800F2002B080A128A1539270A128A11730825
:1001680083120313BF007208BE003E08AE00AF0141
:10017800B001B1012E08B4072F0803110318013E7E
:100188000319C728B507300803110318013E0319DE
:10019800CE28B607310803110318013E0319D528E4
:1001A800B7073F08AE00AF01B001B1012E08BA078A
:1001B8002F0803110318013E0319E328BB07300871
:1001C80003110318013E0319EA28BC07310803117B
:1001D8000318013E0319F128BD072808F2002A0870
:1001E8000A128A1539270A128A117308831203130F
:1001F800BF007208BE003E08AE00AF01B001B101F9
:100208002E08B4072F0803110318013E03190D29FE
:10021800B507300803110318013E03191429B6075E
:10022800310803110318013E03191B29B7073F08BA
:10023800AE00AF01B001B1012E08BA072F080311B3
:100248000318013E03192929BB07300803110318B5
:10025800013E03193029BC07310803110318013E78
:1002680003193729BD070830AE000310B40DB50DCA
:10027800B60DB70DAE0B39292708F2002A080A1265
:100288008A1539270A128A11730883120313BF00CB
:100298007208BE003E08AE003F08AF00B001B101D1
:1002A8002E08B4072F0803110318013E03195D290E
:1002B800B507300803110318013E03196429B6076E
:1002C800310803110318013E03196B29B7072608E3
:1002D800F2002B080A128A1539270A128A117308A4
:1002E80083120313BF007208BE003E08AE003F0829
:1002F800AF00B001B1012E08B4072F08031103188D
:10030800013E03198829B507300803110318013E77
:1003180003198F29B607310803110318013E031981
:100328009629B7070830AE000310B40DB50DB60D09
:10033800B70DAE0B98292608F2002A080A128A156A
:1003480039270A128A11730883120313BF0072082F
:10035800BE003E08AE003F08AF00B001B1012E0854
:10036800B4072F0803110318013E0319BC29B50768
:10037800300803110318013E0319C329B6073108D1
:1003880003110318013E0319CA29B7072708F20009
:100398002C080A128A1539270A128A11730883123F
:1003A8000313BF007208BE003E08AE003F08AF004E
:1003B800B001B1012E08BA072F0803110318013E36
:1003C8000319E729BB07300803110318013E031975
:1003D800EE29BC07310803110318013E0319F5295A
:1003E800BD072808F2002B080A128A1539270A12B5
:1003F8008A11730883120313BF007208BE003E08F7
:10040800AE003F08AF00B001B1012E08BA072F08AF
:1004180003110318013E0319122ABB073008031100
:100428000318013E0319192ABC07310803110318E0
:10043800013E0319202ABD072808F2002C080A12D9
:100448008A1539270A128A11730883120313BF0009
:100458007208BE003E08AE003F08AF00B001B1010F
:1004680008300310AE0DAF0DB00DB10DFF3E031DEA
:10047800352A2E08BA072F0803110318013E03195D
:10048800462ABB07300803110318013E03194D2AF9
:10049800BC07310803110318013E0319542ABD078C
:1004A8003408AE003508AF003608B0003708B10090
:1004B80018300310B10CB00CAF0CAE0CFF3E031D8E
:1004C8005D2A2E08BA072F0803110318013E0319E5
:1004D8006E2ABB07300803110318013E0319752A59
:1004E800BC07310803110318013E03197C2ABD0714
:1004F8000830AE000310B40DB50DB60DB70DAE0B38
:100508007E2A39083807AE00AF01AF0D2E08823EAB
:10051800BE002F080318013EFF3EBF00B02A01307D
:10052800AE000310BA0DBB0DBC0DBD0DAE0B952A68
:10053800B71F9F2AA02AA12A3A140130AE0003103F
:10054800B40DB50DB60DB70DAE0BA32AFF30BE071F
:100558000318BF0AFF30BF07BC1FB32AB42A932A67
:10056800B801B71FB82AB92AD52AFF303405AE001A
:10057800FF303505AF00FF303605B0007F30370556
:10058800B100310830042F042E040319CC2ACD2AD7
:10059800D02AB801B80AD52A3A1CD32AD42AD52A8F
:1005A800CD2A38080319D92ADA2A0B2B0130BA07C1
:1005B800003003180130BB07003003180130BC07B6
:1005C800003003180130BD073D1CEB2AEC2A0B2B29
:1005D8003A08AE003B08AF003C08B0003D08B10047
:1005E8000130B200310DB10CB00CAF0CAE0CB20B37
:1005F800F62A3108BD003008BC002F08BB002E08C1
:10060800BA000130BE070318BF0A0030BF073F0811
:10061800803AFF0080307F02031D142BFF303E021A
:10062800031C172B182B232B7F3083120313BD00B9
:100638008030BC000030BB000030BA00542B83125D
:1006480003133F08803AFF0080307F02031D2E2BE2
:1006580001303E020318312B322B3E2B003083121F
:100668000313BD000030BC000030BB000030BA00EE
:10067800B301542B831203133E08B900FF30BA05A7
:10068800FF30BB057F30BC050030BD05391C4D2B44
:100698004E2B4F2BBC173908AE0003102E0CBD0093
:1006A8003308AE002E08BD043D08A9003C08A80088
:1006B8003B08A7003A08A60008000A128A15602716
:1006C8000A128A11831203130713C7308312031304
:1006D800D3006E2BD30B6D2B712B01300A128A15A8
:1006E8009D260A128A110A128A15B9260A128A1137
:1006F80083120313D300D4015308D6005408D7003B
:10070800C73083120313D300892BD30B882B8C2B70
:1007180000300A128A159D260A128A110A128A15B1
:10072800B9260A128A1183120313D300D40153087D
:10073800D8005408D900C73083120313D300A42B60
:10074800D30BA32BA72B8312031307178713C730C9
:1007580083120313D300B02BD30BAF2BB32B013071
:100768000A128A159D260A128A110A128A15B926B2
:100778000A128A1183120313D300D4015308DA0032
:100788005408DB00C73083120313D300CB2BD30BE1
:10079800CA2BCE2B8312031387170A128A11F32749
:1007A8000A128A11F601F60A01300A128A15BA27C6
:1007B8000A128A1101300A128A1514270A128A119C
:1007C8000630F60001300A128A15BA270A128A1171
:1007D80006300A128A1514270A128A110B30F600FD
:1007E80001300A128A15BA270A128A110B300A1226
:1007F8008A1514270A128A11F601F60A02300A121B
:100808008A15BA270A128A11831203135708CB00D4
:100818005608CA006C30CC006A30CD006830CE0073
:100828000A128A11C3250A128A11831203136C084B
:10083800303E0A128A1587270A128A110230F600FA
:1008480002300A128A15BA270A128A112E300A12A1
:100858008A1587270A128A110330F60002300A1215
:100868008A15BA270A128A11831203136A08303EBE
:100878000A128A1587270A128A110430F6000230F4
:100888000A128A15BA270A128A11831203136808F2
:10089800303E0A128A1587270A128A110630F60096
:1008A80002300A128A15BA270A128A118312031310
:1008B8005B08CB005A08CA006630CC006430CD0013
:1008C8006230CE000A128A11C3250A128A118312D5
:1008D80003136608303E0A128A1587270A128A11FE
:1008E8000730F60002300A128A15BA270A128A114E
:1008F8002E300A128A1587270A128A110830F60044
:1009080002300A128A15BA270A128A1183120313AF
:100918006408303E0A128A1587270A128A1109309C
:10092800F60002300A128A15BA270A128A118312AF
:1009380003136208303E0A128A1587270A128A11A1
:100948000B30F60002300A128A15BA270A128A11E9
:10095800831203135908CB005808CA006030CC0032
:100968005E30CD005C30CE000A128A11C3250A120F
:100978008A11831203136008303E0A128A158727EA
:100988000A128A110C30F60002300A128A15BA27A8
:100998000A128A112E300A128A1587270A128A111A
:1009A8000D30F60002300A128A15BA270A128A1187
:1009B800831203135E08303E0A128A1587270A122B
:1009C8008A110E30F60002300A128A15BA270A1266
:1009D8008A11831203135C08303E0A128A1587278E
:1009E8000A128A11023083120313D5000430D4008E
:1009F800B930D300D30BFE2CD40BFE2CD50BFE2C18
:100A0800052D662B0A128A110C2883120313A000E5
:100A180020080319102D112D252DF51F142D152D26
:100A2800252D7209A2007309A3007409A400750991
:100A3800A500A20A0319A30A0319A40A0319A50AFF
:100A48002D2D7508A5007408A4007308A30072086A
:100A5800A2007508740473047204031D342D352D27
:100A68003E2D0030F5000030F4000030F300003077
:100A7800F200C22D9630A1004E2D0130F600760806
:100A8800A10701300310A50CA40CA30CA20CFF3E77
:100A9800031D462DFE302505031D532D542D412DD4
:100AA800702D0130F6007608A1070130A20700304A
:100AB80003180130A307003003180130A4070030E1
:100AC80003180130A50701300310A50CA40CA30CD2
:100AD800A20CFF3E031D682DFF302505031D752D53
:100AE800762D552D822D0130A1020130F60003101C
:100AF800A20DA30DA40DA50DF60B7B2DA41B852D12
:100B0800862D8C2D0230210203188B2D8C2D772DEC
:100B180021188F2D902D982DFF30A205FF30A305A9
:100B28007F30A405FF30A5050310A10C2108F600AD
:100B3800F701F801F90118300310F60DF70DF80D5B
:100B4800F90DFF3E031DA02D7608A2047708A30423
:100B58007808A4047908A50420080319B42DB52D34
:100B6800BA2DF51FB82DB92DBA2DA5172508F500F2
:100B78002408F4002308F3002208F20008000310F8
:100B8800831203134A0DF2004B0DF300F401F31B1B
:100B9800F4037408F50001300A128A1109250A12B3
:100BA8008A11750883120313AD007408AC0073082A
:100BB800AB007208AA003F30A9007B30A8002230A1
:100BC800A700D130A6000A128A111C200A128A1125
:100BD800831203132908C3002808C2002708C1008C
:100BE8002608C0000A128A115E260A128A11831288
:100BF80003134108CB004008CA006430F2000030FB
:100C0800F3004B08F5004A08F4000A128A11D626A8
:100C18000A128A11831203134C0884007208831382
:100C28008000840A730880006430F2000030F3000A
:100C38004B08F5004A08F4000A128A119A270A128A
:100C48008A11730883120313D0007208CF000A3088
:100C5800F2000030F3005008F5004F08F4000A12C3
:100C68008A11D6260A128A11831203134D088400AA
:100C7800720883138000840A730880000A30F20027
:100C88000030F3004B08F5004A08F4000A128A11F4
:100C98009A270A128A11730883120313D200720862
:100CA800D1004E088400510883138000840A52083A
:100CB80080000800031083120313420D430DC9007E
:100CC8004908031D682E692E722E0030C3000030BB
:100CD800C2000030C1000030C000D52E4008C4005A
:100CE8004108C5004208C6004308C7001F3003106A
:100CF800C70CC60CC50CC40CFF3E031D7B2E440854
:100D0800C800C217FF30C005FF30C105FF30C2055B
:100D18000030C3059630C902C91F932E942EAE2EFB
:100D28004908803A973E03189A2E9B2E9C2E692ECE
:100D380001300310C30CC20CC10CC00CFF3E031DD4
:100D48009D2E0130C4004408C907031DAC2EAD2EEA
:100D58009C2EC52E20304902031CB32EB42EC02E63
:100D6800692E0130C4000310C00DC10DC20DC30DA2
:100D7800C40BB72E0130C9024908031DC42EC52E65
:100D8800B52E48080319C92ECA2ED52EC009C10987
:100D9800C209C309C00A0319C10A0319C20A0319FF
:100DA800C30A0800F801F31FDA2EDB2EE22EF2093F
:100DB800F309F20A0319F30AF801F80AF51FE52EF8
:100DC800E62EEF2EF409F509F40A0319F50A0130A5
:100DD800F6007608F806F901FA0172087304031997
:100DE800F62EF72E2E2FF701F70A052F01300310E4
:100DF800F20DF30DFF3E031DFB2E0130F6007608C1
:100E0800F707F31F082F092FFA2E01300310F90DE9
:100E1800FA0DFF3E031D0A2F73087502031D162FD6
:100E280072087402031C192F1A2F212F7208F4025A
:100E38007308031CF503F502791401300310F30C51
:100E4800F20CFF3E031D222F0130F702031D2D2F48
:100E58002E2F092F78080319322F332F382FF9092D
:100E6800FA09F90A0319FA0A7A08F3007908F2006C
:100E7800080000300A128A15F2260A128A111A305E
:100E8800F700F830F600F60B472FF70B472F000056
:100E980003300A128A15D8260A128A110730F70079
:100EA8007D30F600F60B562FF70B562F03300A123B
:100EB8008A15D8260A128A110F30F7004730F60033
:100EC800F60B642FF70B642F692F03300A128A156B
:100ED800D8260A128A1102300A128A15D8260A124E
:100EE8008A1102300A128A15D8260A128A11083085
:100EF8000A128A15D8260A128A1100300A128A158F
:100F0800D8260A128A110C300A128A15D8260A1213
:100F18008A1100300A128A15D8260A128A11063058
:100F28000A128A15D8260A128A110800F801F51F34
:100F38009E2F9F2FA62FF409F509F40A0319F50A25
:100F4800F801F80AF31FA92FAA2FAF2FF209F30906
:100F5800F20A0319F30A720873040319B42FB52FA0
:100F6800E42FF701F70AC32F01300310F20DF30D38
:100F7800FF3E031DB92F0130F6007608F707F31F6F
:100F8800C62FC72FB82F73087502031DCD2F7208FF
:100F98007402031CD02FD12FD72F7208F4027308C4
:100FA800031CF503F50201300310F30CF20CFF3EAD
:100FB800031DD82F0130F702031DE32FE42FC72F9D
:100FC80078080319E82FE92FEE2FF409F509F40A38
:100FD8000319F50A7508F3007408F20008000030D8
:100FE8000A128A15D8260A128A1101300A128A159D
:100FF800D8260A128A11080008308A000408840AD0
:1010080082070034533431343A34203400345334B2
:1010180032343A3420340034533433343A342034BC
:02102800003492
:101D3A00F2007208831203139300080071088A00E4
:101D4A00700E8300FE0E7E0E090083160313141C08
:101D5A00AF2EB02EAA2E080064008001840A040661
:101D6A00031900340406B22E0A128A15AA260A1288
:101D7A008A158312031313080800F5008316031348
:101D8A008712751DC92ECA2ECE2E74089400871587
:101D9A00D22E720874049400871175087304831292
:101DAA00031394000800F500831203130811750841
:101DBA000A128A15F2260A128A1583120313881543
:101DCA000630F4003030F300F30BE92EF40BE92E61
:101DDA0000008312031388110800F200721CF62E09
:101DEA00F72EFB2E831203130816FE2E83120313FB
:101DFA000812F21C012F022F042F8816052F8812B1
:101E0A00721D082F092F0B2F08170C2F0813F21D0C
:101E1A000F2F102F122F8817132F88130800F9007D
:101E2A00F701F8012B2F7708790784000A128A151F
:101E3A0000200A128A150A128A1587270A128A1599
:101E4A000130F7070318F80A0030F807770879070E
:101E5A0084000A128A1500200A128A15003A031D04
:101E6A00372F382F182F0800FA00F601F7017208E9
:101E7A00F400F5017408F8007508F9007A1C462F79
:101E8A00472F4D2F7808F6070318F70A7908F7073E
:101E9A0001300310F80DF90DFF3E031D4E2F0310FC
:101EAA00FA0C7A08031D5A2F5B2F432F7708F30089
:101EBA007608F2000800831603130F088F3960387A
:101ECA008F000F1488018312031388018601831679
:101EDA00031307138713831203138717071783162E
:101EEA000317880189010A128A113D270A128A15E5
:101EFA00F201F301F40120300A128A15C2260A12ED
:101F0A008A150800F60076080F39F4007608F039C9
:101F1A00F5008312031308157508F3000430031043
:101F2A00F30CFF3E031D942F73080A128A15F2263A
:101F3A000A128A158312031388150D30F300F30B66
:101F4A00A42F83120313881174080A128A15F22621
:101F5A000A128A158312031388150D30F300F30B46
:101F6A00B42F8312031388110800F8007803031DA5
:101F7A00BF2FC02FDD2F76087F3EFB007B08F700BE
:101F8A0004300310F70CFF3E031DC62F7708F90033
:101F9A007B080F39FA0079080A128A15D8260A121C
:101FAA008A157A080A128A15D8260A128A15FF2F64
:101FBA0002307806031DE22FE32FFF2F7608BF3E7B
:101FCA00FB007B08F70004300310F70CFF3E031DEB
:101FDA00E92F7708F9007B080F39FA0079080A1205
:101FEA008A15D8260A128A157A080A128A15D82654
:061FFA000A128A1508001E
:08400000FF3FFF3FFF3FFF3FC0
:04400E00F420FF3F5C
:00000001FF
