:060000000A128A110C280F
:10000800FE00030EF1000A08F2000A128A11C9283C
:100018000A128A110F2883010A128A11DF2883160F
:1000280003139F131F129F12831203131F083F39D4
:1000380040389F00730AF5000130F6000030F700E1
:1000480028280310F60DF70DF50B252878087604F7
:10005800F80079087704F9005D2883160317080863
:10006800780488008316031305087804850070282F
:1000780083160317080878048800831603130508F5
:100088007804850070288316031708087804880008
:100098008316031305087804850070288316031750
:1000A8000808780488008316031305087804850077
:1000B80070287408003A0319622870287308003AF7
:1000C80003193128013A03193C28033A0319472830
:1000D800013A0319522870287308F500F50DF50D3B
:1000E80083121F087506C33975069F001F14103048
:1000F800F500F50B7D2800000800831603130F0890
:100108008F3960388F000F14860188018316031712
:10011800880189018316031385010230F30000303A
:10012800F4000A128A1113200A128A11F301F40149
:10013800F50124300A128A11B3200A128A11831693
:10014800031385160B178B17831203138C11831651
:1001580003138C1583120313860188010800F60027
:10016800831603138712761DBA28BB28BF28750883
:1001780094008715C32873087504940087117608BE
:1001880074048312031394000800831203138C1D54
:10019800CE28CF28D8287F300A128A11E8200A12E0
:1001A8008A11831203138C1172088A00710E83005E
:1001B800FE0E7E0E09000A128A1181200A128A1187
:1001C800E4280A128A110C28F0007008831203131D
:0401D8009300080088
:08400000FF3FFF3FFF3FFF3FC0
:04400E00F420FF3F5C
:00000001FF
