:060000000A128A110C280F
:10000800FE00030EF1000A08F2000A128A1187287E
:100018000A128A110F28F701F801F901FA01830180
:100028000A128A115629831603139F131F129F124F
:10003800831203131F083F3940389F00730AA0003A
:100048000130A1000030A2002C280310A10DA20D40
:10005800A00B292875082104F50076082204F6006B
:10006800612883160317080875048800831603138C
:100078000508750485007428831603170808750495
:1000880088008316031305087504850074288316F1
:1000980003170808750488008316031305087504F8
:1000A80085007428831603170808750488008316CA
:1000B800031305087504850074287408003A0319A9
:1000C800662874287308003A03193528013A031979
:1000D8004028033A03194B28013A03195628742873
:1000E80073088312A000A00DA00D1F082006C339B5
:1000F80020069F001F140F3083120313A000A00BCB
:100108008328862808000B1C8A288B28A22883129B
:100118000313061C9028912897280130F907031823
:10012800FA0A0030FA07861C9A289B28A128FF3073
:10013800F9070318FA0AFF30FA070B1083120313A2
:100148008C1DA728A828CB280A128A1177210A1201
:100158008A11013A031DB128B228B82877080A1273
:100168008A1187210A128A110A128A1177210A1222
:100178008A11003A031DC128C228C82879080A1222
:100188008A1187210A128A11831203138C117208AB
:100198008A00710E8300FE0E7E0E0900831603137B
:1001A8000F088F3960388F000F1486018801831675
:1001B8000317880189018316031385010230F300B0
:1001C8000030F4000A128A1117200A128A1100302E
:1001D8000A128A1110210A128A1101300A128A1190
:1001E80010210A128A11F301F401F50124300A12D0
:1001F8008A1140210A128A118316031385160B17D8
:100208008B17831203138C11831603138C15831217
:10021800031386018801080083120313A000200A33
:10022800F3000130F4000030F5001D290310F40D2F
:10023800F50DF30B1A2921087404A100220875048E
:10024800A2008316031306088312031321048316DE
:1002580003138600811315088312031321048316E0
:10026800031395001608831203132104831603133E
:1002780096008B150B100800F600831603138712DF
:10028800761D472948294C29750894008715502957
:100298007308750494008711760874048312031395
:1002A800940008000A128A11D2200A128A110A122E
:1002B8008A1168210A128A117408F8007308F70075
:1002C8005B290A128A110C28831203139F149F18A2
:1002D8006E296F296B291E08F500F6017508F300D1
:1002E8007608F40008000A128A1180210A128A117D
:1002F800831203131308080083160313141C85299B
:10030800862980290800F0007008831203139300DF
:020318000800DB
:08400000FF3FFF3FFF3FFF3FC0
:04400E00F420FF3F5C
:00000001FF
