:060000000A128A110C280F
:10000800FE00030EF4000A08F5000A128A11D72828
:100018000A128A110F2883010A128A1130298316BD
:1000280003139F131F129F12831203131F083F39D4
:1000380040389F00760AA0000130A1000030A200DD
:1000480028280310A10DA20DA00B252823082104A0
:10005800A30024082204A4007D2883160317080897
:1000680083120313230483160317880083160313CC
:1000780005088312031323048316031385009028AD
:100088008316031708088312031323048316031720
:1000980088008316031305088312031323048316A9
:1000A8000313850090288316031708088312031387
:1000B8002304831603178800831603130508831285
:1000C800031323048316031385009028831603174C
:1000D8000808831203132304831603178800831662
:1000E80003130508831203132304831603138500DF
:1000F80090287708003A0319822890287608003A51
:1001080003193128013A03194428033A03195728D7
:10011800013A03196A28902876088312A000A00DD6
:10012800A00D1F082006C33920069F001F140F309A
:1001380083120313A000A00B9F28A228080083168F
:1001480003130F088F3960388F000F148601880158
:10015800831603178801890183160313850102306A
:10016800F6000030F7000A128A1113200A128A11C9
:1001780083120313A001A101A20124300A128A11DB
:1001880003210A128A118316031385160B178B177E
:10019800831203138C11831603138C158312031314
:1001A800860188010800831203138C1DDC28DD28D2
:1001B800FC280A128A1139210A128A11003A0319F5
:1001C800E628E728F3280A128A1121210A128A113F
:1001D80070080A128A1149210A128A11F9288030F6
:1001E8000A128A1149210A128A11831203138C11E7
:1001F80075088A00740E8300FE0E7E0E0900F60054
:10020800831603138712761D0A290B2913298312D3
:100218000313220883160313940087151B298312DE
:100228000313200822048316031394008711760809
:1002380083120313210494000800831203139F14EC
:100248009F182729282924291E08F200F30172087B
:10025800F0007308F10008000A128A11A3200A129C
:100268008A1135290A128A110C280A128A11422188
:100278000A128A1183120313130808008316031342
:10028800141C4729482942290800F00070088312E5
:06029800031393000800AF
:08400000FF3FFF3FFF3FFF3FC0
:04400E00F420FF3F5C
:00000001FF
