:060000000A128A1110280B
:10000800FE00030E83120313AE000A08AF007F0838
:10001800B0000A128A15C02E0A128A1113280A1271
:100028008A15C4240A128A11CE000A128A15C52418
:100038000A128A11CF0083160313C801C90183125B
:100048000313CA01CB01CC01CD0183010A128A1125
:100058002D280A128A1519260A128A1101308312CC
:100068000313CE000030CF00182E0030B700B800C0
:100078000A128A11A0270A128A1183120313380858
:1000880083160313A500831203133708831603137B
:10009800A400013083120313B7000030B8000A121D
:1000A8008A11A0270A128A118312031338088316AB
:1000B8000313A70083120313370883160313A6003C
:1000C800023083120313B7000030B8000A128A11F5
:1000D800A0270A128A118312031338088316031300
:1000E800C70083120313370883160313C6000430AE
:1000F80083120313B7000030B8000A128A11A02730
:100108000A128A1183120313380883160313A900ED
:1001180083120313370883160313A80005308312CC
:100128000313B7000030B8000A128A11A0270A1278
:100138008A1183120313380883160313AB00831242
:100148000313370883160313AA0006308312031318
:10015800B7000030B8000A128A11A0270A128A11C3
:1001680083120313380883160313AD008312031395
:10017800370883160313AC00250883120313C8003D
:1001880083160313240883120313C7000430FF00E7
:10019800480DC80CC70CFF0BCC280F304705831639
:1001A8000313B000003083120313480583160313AA
:1001B800B1000F302405AE0000302505AF00270838
:1001C80083120313C800831603132608831203132C
:1001D800C7000430FF00480DC80CC70CFF0BEF2800
:1001E8000F30470583160313B4000030831203133E
:1001F800480583160313B5000F302605B2000030FA
:100208002705B300470883120313C8008316031396
:10021800460883120313C7000430FF00480DC80CBA
:10022800C70CFF0B12290330470583160313B800C8
:10023800003083120313480583160313B9000F30E7
:100248004605B60000304705B70029088312031396
:10025800C80083160313280883120313C700043049
:10026800FF00480DC80CC70CFF0B352903304705A4
:1002780083160313BC00003083120313480583164A
:100288000313BD000F302805BA0000302905BB0054
:100298002B0883120313C800831603132A0883123A
:1002A8000313C7000430FF00480DC80CC70CFF0B30
:1002B80058290330470583160313C0000030831202
:1002C8000313480583160313C1000F302A05BE0027
:1002D80000302B05BF002D0883120313C8008316B6
:1002E80003132C0883120313C7000430FF00480DC2
:1002F800C80CC70CFF0B7B29033047058316031373
:10030800C400003083120313480583160313C50085
:100318000F302C05C20000302D05C30040304605C3
:10032800A00000304705A1000A128A15D8240A1235
:100338008A11503083120313B1000030B2000A1240
:100348008A15F4240A128A11831203130608C700B7
:10035800C8014708B1004808B2000A128A15F424F7
:100368000A128A110A128A15E1240A128A11033024
:1003780083120313C9000830C8007630C700C70BC2
:10038800C329C80BC329C90BC32900000A128A153F
:10039800D8240A128A11513083120313B100003095
:1003A800B2000A128A15F4240A128A110030831244
:1003B8000313B100B2000A128A15E7250A128A113E
:1003C80083120313320883160313A3008312031343
:1003D800310883160313A2000A128A15E1240A12AF
:1003E8008A11033083120313C9000830C80076301D
:1003F800C700C70BFD29C80BFD29C90BFD29000043
:100408000A128A150B250A128A1183120313B501E1
:10041800B50A01300A128A1500270A128A11093012
:100428000A128A1561250A128A1183120313B5016B
:10043800B50A02300A128A1500270A128A11831691
:1004480003132208303E0A128A154D260A128A1111
:10045800053083120313B50002300A128A150027EB
:100468000A128A11831603133C08303E0A128A15B1
:100478004D260A128A11063083120313B500023082
:100488000A128A1500270A128A11831603133A08DA
:10049800303E0A128A154D260A128A110730831235
:1004A8000313B50002300A128A1500270A128A11AE
:1004B8002F300A128A154D260A128A110830831223
:1004C8000313B50002300A128A1500270A128A118E
:1004D800831603134008303E0A128A154D260A1265
:1004E8008A11093083120313B50002300A128A15E3
:1004F80000270A128A11831603133E08303E0A1297
:100508008A154D260A128A110A3083120313B50080
:1005180002300A128A1500270A128A112F300A128D
:100528008A154D260A128A110B3083120313B5005F
:1005380002300A128A1500270A128A118316031339
:100548004408303E0A128A154D260A128A110C30C8
:1005580083120313B50002300A128A1500270A1203
:100568008A11831603134208303E0A128A154D2653
:100578000A128A11053083120313B50001300A12DA
:100588008A1500270A128A11831603133808303E89
:100598000A128A154D260A128A110630831203138D
:1005A800B50001300A128A1500270A128A1183162B
:1005B80003133608303E0A128A154D260A128A118C
:1005C800073083120313B50001300A128A15002779
:1005D8000A128A113A300A128A154D260A128A110D
:1005E800083083120313B50001300A128A15002758
:1005F8000A128A11831603133408303E0A128A1528
:100608004D260A128A11093083120313B5000130EE
:100618000A128A1500270A128A1183160313320850
:10062800303E0A128A154D260A128A110A308312A0
:100638000313B50001300A128A1500270A128A111D
:100648003A300A128A154D260A128A110B30831283
:100658000313B50001300A128A1500270A128A11FD
:10066800831603133008303E0A128A154D260A12E3
:100678008A110C3083120313B50001300A128A154F
:1006880000270A128A11831603132E08303E0A1215
:100698008A154D260A128A11683083120313C8007E
:1006A800E330C700C70B562BC80B562B5B2B182EF5
:1006B8004B08B8004A08B7000A128A11A0270A1284
:1006C8008A1183120313380883160313C90083128F
:1006D8000313370883160313C8004908831203134A
:1006E800C80083160313480883120313C700043095
:1006F800FF00480DC80CC70CFF0B7D2B0F304705BA
:1007080083160313B00000308312031348058316C1
:100718000313B1000F304805AE0000304905AF00A3
:100728000A128A150B250A128A110B308312031339
:10073800B50001300A128A1500270A128A11831699
:1007480003133008303E0A128A154D260A128A1100
:100758000C3083120313B50001300A128A150027E2
:100768000A128A11831603132E08303E0A128A15BC
:100778004D260A128A11063083120313C90013305A
:10078800C800AD30C700C70BC72BC80BC72BC90B98
:10079800C72B182E3B30CC000030CD004B08B800DA
:1007A8004A08B7000A128A11A0270A128A1183126E
:1007B8000313380883160313C90083120313370879
:1007C80083160313C800490883120313C80083164D
:1007D8000313480883120313C7000430FF00480DB1
:1007E800C80CC70CFF0BF32B0F30470583160313F8
:1007F800B400003083120313480583160313B500B1
:100808000F304805B20000304905B3000A128A15B6
:100818000B250A128A11083083120313B500013020
:100828000A128A1500270A128A118316031334083C
:10083800303E0A128A154D260A128A11093083128F
:100848000313B50001300A128A1500270A128A110B
:10085800831603133208303E0A128A154D260A12EF
:100868008A11BF2B1930CC000030CD004B08B800DE
:100878004A08B7000A128A11A0270A128A1183129D
:100888000313380883160313C900831203133708A8
:1008980083160313C800490883120313C80083167C
:1008A8000313480883120313C7000430FF00480DE0
:1008B800C80CC70CFF0B5B2C0F30470583160313BE
:1008C800B800003083120313480583160313B900D8
:1008D8000F304805B60000304905B7000A128A15DE
:1008E8000B250A128A11053083120313B500013053
:1008F8000A128A1500270A128A1183160313380868
:10090800303E0A128A154D260A128A1106308312C1
:100918000313B50001300A128A1500270A128A113A
:10092800831603133608303E0A128A154D260A121A
:100938008A11BF2B0430CA000030CB001E30CC0017
:100948000030CD004B08B8004A08B7000A128A11D7
:10095800A0270A128A118312031338088316031377
:10096800C90083120313370883160313C800490804
:1009780083120313C8008316031348088312031352
:10098800C7000430FF00480DC80CC70CFF0BC72C6C
:100998000F30470583160313BC000030831203137E
:1009A800480583160313BD000F304805BA00003010
:1009B8004905BB000A128A150B250A128A1105304F
:1009C80083120313B50002300A128A1500270A128F
:1009D8008A11831603133C08303E0A128A154D26E5
:1009E8000A128A11063083120313B50002300A1264
:1009F8008A1500270A128A11831603133A08303E13
:100A08000A128A154D260A128A11BF2B0C30CC0007
:100A18000030CD004B08B8004A08B7000A128A1106
:100A2800A0270A128A1183120313380883160313A6
:100A3800C90083120313370883160313C800490833
:100A480083120313C8008316031348088312031381
:100A5800C7000430FF00480DC80CC70CFF0B2F2D32
:100A68000F30470583160313C000003083120313A9
:100A7800480583160313C1000F304805BE00003037
:100A88004905BF000A128A150B250A128A11083077
:100A980083120313B50002300A128A1500270A12BE
:100AA8008A11831603134008303E0A128A154D2610
:100AB8000A128A11093083120313B50002300A1290
:100AC8008A1500270A128A11831603133E08303E3E
:100AD8000A128A154D260A128A11BF2B6330CC00E0
:100AE8000030CD004B08B8004A08B7000A128A1136
:100AF800A0270A128A1183120313380883160313D6
:100B0800C90083120313370883160313C800490862
:100B180083120313C80083160313480883120313B0
:100B2800C7000430FF00480DC80CC70CFF0B972DF9
:100B38000F30470583160313C400003083120313D4
:100B4800480583160313C5000F304805C20000305E
:100B58004905C3000A128A150B250A128A110B309F
:100B680083120313B50002300A128A1500270A12ED
:100B78008A11831603134408303E0A128A154D263B
:100B88000A128A110C3083120313B50002300A12BC
:100B98008A1500270A128A11831603134208303E69
:100BA8000A128A154D260A128A11BF2B0130CE006F
:100BB8000030CF00CA01CB01182ECA01CB01322860
:100BC8004B08003A0319E92DE12D4A08003A0319A8
:100BD8005C2B013A0319CE2B033A0319362C013A40
:100BE80003199E2C073A0319A22C013A03190A2D5E
:100BF800033A0319722D013A0319DA2DE12D0A126D
:100C08008A150B250A128A1183120313B501B50A36
:100C180001300A128A1500270A128A1101300A12B5
:100C28008A1561250A128A11831203134F08003AA4
:100C380003191F2E032E4E08013A03193928033AC7
:100C48000319E42D032E0A128A11102883120313A4
:100C58002308F7002208F6000A128A154C270A1200
:100C68008A11770883120313A7007608A6002708BD
:100C7800FD002608FC000430FF007D0DFD0CFC0C77
:100C8800FF0B412E0F307C05AA0000307D05AB001C
:100C98000F302605AC0000302705AD000A30F00003
:100CA8000030F1002108F3002008F2000A128A112E
:100CB80039270A128A110F30700583120313A8000E
:100CC80000307105A9000F302005A400003021056F
:100CD800A5002B08803AFC002908803A7C02031DF5
:100CE800772E28082A0203187A2E7B2E922E01309E
:100CF80083120313AC070318AD0A0030AD0709309F
:100D08002C062D04031D892E8A2E922E0130AA0747
:100D18000318AB0A0030AB07AC01AD018312031313
:100D280029082B06031D9A2E28082A06031D9D2E26
:100D38009E2EB22E0130AC070318AD0A0030AD0765
:100D480025082D06031DAA2E24082C06031DAD2EEA
:100D5800AE2EB22EAA01AB01AC01AD012308F300FF
:100D68002208F2002B08FD002A08FC00FC0EFD0EEC
:100D7800F030FD057C080F39FD04F030FC052C0827
:100D88007C07F4002D0803182D0A7D07F5000A12C8
:100D98008A15B8250A128A11080000308312031335
:100DA800BD000030BC000030BB000030BA00340881
:100DB8003304320431040319E22EE32E302FBE012E
:100DC800BE0AF32E0130B9000310B10DB20DB30DF8
:100DD800B40DB90BE82E0130B9003908BE07B41FAD
:100DE800F62EF72EE62E0130B9000310BA0DBB0D12
:100DF800BC0DBD0DB90BF92E34083802031D0E2F9A
:100E080033083702031D0E2F32083602031D0E2F3A
:100E180031083502031C112F122F212F3108B5027A
:100E28003208031C320FB6023308031C330FB70213
:100E38003408031C340FB8023A1401300310B40C00
:100E4800B30CB20CB10CFF3E031D222F0130BE02C1
:100E5800031D2F2F302FF72E3D08B4003C08B30098
:100E68003B08B2003A08B1000800F601F11F3D2F17
:100E78003E2F452FF009F109F00A0319F10AF6018E
:100E8800F60AF31F482F492F522FF209F309F20AE5
:100E98000319F30A0130F4007408F606F701F801A3
:100EA800700871040319592F5A2F912FF501F50A6B
:100EB800682F01300310F00DF10DFF3E031D5E2F6A
:100EC8000130F4007408F507F11F6B2F6C2F5D2FAC
:100ED80001300310F70DF80DFF3E031D6D2F71084B
:100EE8007302031D792F70087202031C7C2F7D2F5B
:100EF800842F7008F2027108031CF303F3027714BD
:100F080001300310F10CF00CFF3E031D852F01305A
:100F1800F502031D902F912F6C2F76080319952F3A
:100F2800962F9B2FF709F809F70A0319F80A78088A
:100F3800F1007708F00008000A128A15D8240A126E
:100F48008A11D03083120313B1000030B2000A12A4
:100F58008A15F4240A128A11831203133808B2007E
:100F68003708B1000A128A15F4240A128A110A12E3
:100F78008A15E1240A128A11343083120313BA0045
:100F8800F130B900B90BC62FBA0BC62F0A128A1551
:100F9800D8240A128A11D13083120313B100003009
:100FA800B2000A128A15F4240A128A110030831238
:100FB8000313B100B2000A128A15E7250A128A1132
:100FC800831203133208BC003108BB000A128A15C9
:100FD800E1240A128A11343083120313BA00F13063
:100FE800B900B90BF52FBA0BF52F831203133C0880
:100FF800B8003B08B700080008308A000408840AD3
:1010080082070034643465346634613475346C3472
:0C10180074340034533431343A34003462
:10198800013400340A128A15FE240A128A158316B5
:101998000313111408000A128A15FE240A128A1564
:1019A80083160313111508000A128A1518250A123E
:1019B8008A1583160313111408000A128A151825AC
:1019C8000A128A1583160313111508000A128A15BC
:1019D800FE240A128A157008831203139300080064
:1019E8000A128A1518250A128A1583120313310858
:1019F80093000800831603131419032D042DFE2CDD
:101A080011081F39031D092D0A2DFE2C080000306E
:101A18000A128A1525250A128A1501300A128A1512
:101A280025250A128A1508008316031314191D2D7B
:101A38001E2D182D11081F39031D232D242D182D97
:101A4800080083120313B400081134080A128A1517
:101A580041250A128A158312031388150B30831245
:101A68000313B3006130B200B20B382DB30B382D1D
:101A78003D2D831203138811080083120313B1004C
:101A8800311C472D482D4A2D08164B2D0812B11C24
:101A98004E2D4F2D512D8816522D8812311D552D42
:101AA800562D582D0817592D0813B11D5C2D5D2D85
:101AB8005F2D8817602D8813080083120313B80060
:101AC800B601B7017C2D3608380784000A128A153A
:101AD80000200A128A150A128A154D260A128A153A
:101AE800013083120313B6070318B70A0030B7078B
:101AF8003608380784000A128A1500200A128A1547
:101B0800003A031D882D892D672D08000A128A15B1
:101B1800FE240A128A158316031391150A128A15D0
:101B2800FE240A128A15831203131308F200F30124
:101B38007208F4007308F5000A128A15FE240A12C6
:101B48008A1570037104031DAA2DAB2DAF2D8316C2
:101B580003139112B22D83160313911611167508EB
:101B6800F1007408F00008000A128A15C6240A1247
:101B78008A15D030F0000030F1000A128A15EA24E4
:101B88000A128A157308F1007208F0000A128A1501
:101B9800EA240A128A157508F1007408F0000A127E
:101BA8008A15EA240A128A150A128A15CF240A12FB
:101BB8008A153430F700F130F600F60BE12DF70BFB
:101BC800E12DE62D08000A128A1518250A128A1531
:101BD8008316031391150A128A1518250A128A15F5
:101BE800831203131308B300B4013308B500340893
:101BF800B6000A128A1518250A128A1583120313C9
:101C080031033204031D092E0A2E0E2E83160313E8
:101C18009112112E831603139116111683120313B2
:101C28003608B2003508B100080070308316031377
:101C38008F040F1483160317880189018316031371
:101C480088018701831203138801870103308316F3
:101C5800031386008312031386018B15831603135F
:101C6800161496140B178B17003083120313C20037
:101C78000130C1008630C000A030BF000A128A15AA
:101C880086260A128A150A128A159E270A128A15AA
:101C9800080083120313B50035080F39B30035085F
:101CA800F039B40008153408B20004300310B20C3F
:101CB800FF3E031D5A2E32080A128A1541250A12C0
:101CC8008A15831203138815193083120313B2007F
:101CD800B20B6C2E6F2E83120313881133080A126D
:101CE8008A1541250A128A1583120313881519309B
:101CF80083120313B200B20B7F2E822E83120313BA
:101D080088110800283083120313940083160313E4
:101D18009101831203133F08C3004008C40041081F
:101D2800C5004208C60002300310C30DC40DC50D1E
:101D3800C60DFF3E031D982E4608B4004508B300A3
:101D48004408B2004308B1000030B8007A30B70048
:101D58001230B6000030B5000A128A11D1260A12D4
:101D68008A15831203133108FF3E83160313930069
:101D780094018715071608000B1CC32EC42EF72ED6
:101D8800061CC72EC82EE62E02304E064F04031D31
:101D9800CE2ECF2EE62E013083160313C807031864
:101DA800C90A0030C907831203134D08A1004C0863
:101DB800A0004B08A3004A08A2000A128A112A268A
:101DC8000A128A1583120313861CEB2EEC2EF62EAC
:101DD8000230CE000030CF000130CA070318CB0A0A
:101DE8000030CB070B103008FF002F088A002E0E9A
:101DF8008300FE0E7E0E090083120313B70037031B
:101E0800031D072F082F272F35087F3EBA003A08F1
:101E1800B60004300310B60CFF3E031D0E2F360823
:101E2800B8003A080F39B90038080A128A1525256A
:101E38000A128A158312031339080A128A152525EE
:101E48000A128A154B2F02303706031D2C2F2D2F0F
:101E58004B2F3508BF3EBA003A08B60004300310CD
:101E6800B60CFF3E031D332F3608B8003A080F3969
:101E7800B90038080A128A1525250A128A1583120C
:101E8800031339080A128A1525250A128A1508002B
:101E98000A128A15C6240A128A15D030F0000030BA
:101EA800F1000A128A15EA240A128A157708F10045
:101EB8007608F0000A128A15EA240A128A150A120C
:101EC8008A15CF240A128A153430F900F130F80047
:101ED800F80B6C2FF90B6C2F712F0A128A15C62478
:101EE8000A128A15D130F0000030F1000A128A1562
:101EF800EA240A128A150030F000F1000A128A1545
:101F08008A250A128A157108FB007008FA000A125D
:101F18008A15CF240A128A153430F900F130F800F6
:101F2800F80B942FF90B942F992F7B08F7007A0858
:101F3800F600080000300A128A1541250A128A158F
:101F4800343083120313B600F130B500B50BAA2F55
:101F5800B60BAA2F03300A128A1525250A128A15EC
:101F68000D3083120313B600FB30B500B50BBA2F42
:101F7800B60BBA2F03300A128A1525250A128A15BC
:101F88001D3083120313B6009030B500B50BCA2F6D
:101F9800B60BCA2F000003300A128A1525250A122B
:101FA8008A1502300A128A1525250A128A15023066
:101FB8000A128A1525250A128A1508300A128A1566
:101FC80025250A128A1500300A128A1525250A12B3
:101FD8008A150C300A128A1525250A128A1500302E
:101FE8000A128A1525250A128A1506300A128A1538
:081FF80025250A128A150800D4
:08400000FF3FFF3FFF3FFF3FC0
:04400E00D420FF3F7C
:00000001FF
