:060000000A128A110C280F
:10000800FE00030EF1000A08F2000A128A11A32862
:100018000A128A110F28F801F901FA0183010A125C
:100028008A110029831603139F131F129F1283122C
:1000380003131F083F3980389F00730AF500013009
:10004800F6000030F7002B280310F60DF70DF50B1E
:10005800282820087604A00021087704A100802819
:100068008316031708088312031320048316031743
:1000780088008316031305088312031320048316CC
:1000880003138500932883160317080883120313A4
:1000980020048316031788008316031305088312A8
:1000A800031320048316031385009328831603176C
:1000B8000808831203132004831603178800831685
:1000C8000313050883120313200483160313850002
:1000D8009328831603170808831203132004831632
:1000E80003178800831603130508831203132004DB
:1000F80083160313850093287408003A031985288A
:1001080093287308003A03193428013A0319472839
:10011800033A03195A28013A03196D2893287308DA
:10012800F500F50DF50D83121F087506C339750620
:100138009F001F142130F500F50BA028080083123A
:1001480003138C1DA828A928F9281412141BAD28FC
:10015800AE28B228941FB128B228B7281308FA008D
:1001680014139413141683160313941ABC28BD2869
:10017800D7281419C028C128D728831203131308B5
:10018800FA008C11141683160313141CCC28CD28DE
:10019800C7288312031313088800A630F000F00B59
:1001A800D3280000F628941ADA28DB28F628141D2C
:1001B800DE28DF28F628831203131308FA008316B3
:1001C8000313141078088312031393001416A6302F
:1001D800F000F00BED280000831603131418F5281F
:1001E800F628F028831203138C1172088A00710E06
:1001F8008300FE0E7E0E09000A128A1127210A12B8
:100208008A110A128A1165210A128A117308F800E4
:100218000A128A1165210A128A11730883120313BC
:100228008600063083120313A4001330A300AD30F8
:10023800A200A20B1D29A30B1D29A40B1D2905290A
:100248000A128A110C28831603130F088F39603895
:100258008F000F148316031788018901831603136F
:1002680086018801850183120313860188015030B5
:100278000A128A114B210A128A110230F300003047
:10028800F4000A128A1116200A128A110800F300D3
:1002980073088316031393003630831203139400F4
:1002A80080308316031394000130910087150716D8
:1002B8008B170B17831203138C11831603138C15DA
:1002C8000800831203139F149F186B296C2968294F
:1002D8001E08F500F6017508F3007608F40008001A
:08400000FF3FFF3FFF3FFF3FC0
:04400E00D620FF3F7A
:00000001FF
